:100000000C94BF010C94E7010C94E7010C94E701F8
:100010000C94E7010C94E7010C94E7010C94E701C0
:100020000C94E7010C94E7010C94E7010C94E701B0
:100030000C94E7010C94E7010C94E7010C94E701A0
:100040000C94E7010C94E7010C94E7010C94E70190
:100050000C94E7010C94E7010C94E7010C94E70180
:100060000C94E7010C94E7010C94E7010C94E70170
:100070000C94E7010C94E7010C94E70102000000E6
:1000800000000001222020200000200152505000DA
:10009000000000015250F850F85050012278A07032
:1000A00028F02001C2C81020409818016290A0409A
:1000B000A89068016220400000000001122040402A
:1000C0004020100142201010102040010220A87092
:1000D000A8200001022020F82020000102000000DA
:1000E00000602041020000F8000000010200000052
:1000F000006060010208102040800001728898A80A
:10010000C8887001226020202020700172880810A9
:100110002040F801FA102010088870011230509029
:10012000F8101001FA80F00808887001324080F061
:1001300088887001FA081020404040017288887059
:1001400088887001728888780810600102606000F9
:100150006060000102606000602040011220408069
:10016000402010010200F800F800000142201008B1
:100170001020400172880810200020017288086851
:10018000A8A8700172888888F8888801F28888F0A9
:100190008888F0017288808080887001E290888869
:1001A0008890E001FA8080F08080F801FA8080F089
:1001B00080808001728880B8888878018A8888F871
:1001C0008888880172202020202070013A101010A9
:1001D000109060018A90A0C0A090880182808080E9
:1001E0008080F8018AD8A8A8888888018A88C8A849
:1001F000988888017288888888887001F28888F0D9
:100200008080800172888888A8906801F28888F0D0
:10021000A09088017A8080700808F001FA202020E0
:10022000202020018A888888888870018A888888A8
:10023000885020018A8888A8A8A850018A88502060
:10024000508888018A88885020202001FA081020D0
:100250004080F801724040404040700102804020E0
:100260001008000172101010101070012250880048
:1002700000000001020000000000F8014220100010
:100280000000000102007008788878018280B0C800
:100290008888F00102007080808870010A086898E0
:1002A0008888780102007088F8807001324840E048
:1002B0004040400102788888780870018280B0C888
:1002C00088888801220060202020700112003010F0
:1002D00010906001828090A0C0A090016220202038
:1002E000202070010200D0A8A8A8A8010200B0C870
:1002F0008888880102007088888870010200F08870
:10030000F080800102006898780808010200B0C8F7
:1003100080808001020070807008F0014240E0405F
:100320004048300102008888889868010200888867
:100330008850200102008888A8A850010200885037
:100340002050880102008888780870010200F810A7
:100350002040F801122020402020100122202020DF
:10036000202020014220201020204001020068901F
:100370000000000102000000000000015A051124E5
:100380001FBECFEFD0E1DEBFCDBF12E0A0E0B1E0F5
:10039000ECE2F8E302C005900D92A831B107D9F75D
:1003A00012E0A8E1B2E001C01D92A034B107E1F76C
:1003B00013E0CEE7D3E004C02297FE010E94671A43
:1003C000CC37D107C9F70E94B4130C94141C0C94B9
:1003D0000000149888B91398139A149A089598B93C
:1003E0001398139A88B91398139A0895CF92DF92AD
:1003F000EF92FF920F931F93CF93DF93EC01CE8484
:10040000DF84E884F9840A851B858AE20E94E90179
:1004100080E090E00E94EF01C70101970E94EF0188
:100420008BE20E94E90180E090E00E94EF01C801A8
:1004300001970E94EF018CE20E94E9010FC08A85BA
:100440009B8507C0D8B81398139AC8B81398139A05
:1004500001970097B9F70894E108F108E114F10455
:1004600071F71D821C821F821E82DF91CF911F9126
:100470000F91FF90EF90DF90CF9008952898089506
:10048000289A08952898880F8E778EBD0DB407FEA0
:10049000FDCF6EBD0DB407FEFDCF289A08952898B4
:1004A000880F8E7780688EBD0DB407FEFDCF1EBC11
:1004B0000DB407FEFDCF8EB5289A08950F931F93B4
:1004C000082F162F0E944F0210951823802F612F9E
:1004D0000E9442021F910F9108950F931F93082FBE
:1004E000162F0E944F02182B802F612F0E9442026C
:1004F0001F910F91089581E06FE00E9442020895DC
:10050000209A0E947B028AE26DE80E9442028BE2FE
:100510006EE30E9442028CE26EE10E9442028DE292
:1005200060E00E94420285E160E40E94420281E1B3
:100530006DE30E94420284E10E944F02682F90E026
:1005400083709070892B21F4636084E10E944202E1
:1005500008952F923F924F925F927F928F929F9237
:10056000AF92BF92CF92DF92EF92FF920F931F93C1
:10057000DF93CF9300D00F92CDB7DEB7882E7B8369
:100580006A83D42E190128018CE0881659F0EEE018
:100590008E1619F07724992409C0A2E17A2EF0E191
:1005A0009F2E04C0E7E77E2E70E3972E84E00E9422
:1005B0004F02682F6F7784E00E9442028AE00E9417
:1005C0004F02682F60688AE00E94420281E060E08A
:1005D0000E944202EE24FF248701AD2CBB24CC24D0
:1005E000DD240DC0EA81FB81EE0DFF1D89E06081F5
:1005F0000E9442020894E11CF11C011D111DEA1425
:10060000FB040C051D0570F381E0682D0E94420279
:10061000FCE08F1641F48DE00E944F02682F606865
:100620008DE00E94420260EDE62E67E0F62E012D7D
:10063000112DC92CDD2484E00E944F02B82E0894AD
:10064000E108F10801091109E114F104010511059E
:1006500039F090E080FD04C08C219D21892B59F355
:100660008DE00E944F02682F6F778DE00E9442025A
:10067000E114F1040105110509F44FC086E00E9460
:100680004F028B7109F049C09B2C972081E0982282
:10069000ECE08E1609F043C08AE00E944F02982FCA
:1006A0008CE099830E944F0287709981292F30E056
:1006B000882359F02150304053E0220F331F5A95C0
:1006C000E1F7820FF201808307C043E0220F331F5E
:1006D0004A95E1F7F2012083992311F491E003C0D8
:1006E000913108F090E1EE24FF248701A92EBB246C
:1006F000CC24DD240CC089E00E944F02F101EE0DF4
:10070000FF1D80830894E11CF11C011D111DEA14DA
:10071000FB040C051D0578F302C082E0982E892D9C
:100720000F900F900F90CF91DF911F910F91FF903D
:10073000EF90DF90CF90BF90AF909F908F907F9081
:100740005F904F903F902F900895FF920F931F93CB
:10075000DF93CF930F92CDB7DEB7F82E8B018DE0EC
:1007600067E00E944202F801F0828CE0B80141E0AB
:1007700098018E010F5F1F4F0E94A9020F90CF9129
:10078000DF911F910F91FF900895EF92FF920F93C9
:100790001F93DF93CF930F92CDB7DEB77C018DE02F
:1007A00060E00E94420283E9F701808380E2818356
:1007B0008CE0B70142E097018E010F5F1F4F0E944E
:1007C000A902482F882389F490E020E030E0F70167
:1007D000E20FF31F808198272F5F3F4F24303105B0
:1007E000B1F7F7018481981342E0842F0F90CF91E5
:1007F000DF911F910F91FF90EF900895DF92EF929C
:10080000FF920F931F93CF93DF93182F092FD62EAC
:100810007A0185E064E00E945E028AE060E80E945E
:100820006D02212F302FC901EC0110E005C089E0D5
:1008300069910E9442021F5F1D15C8F381E063E0C9
:100840000E9442021FEF85E00E944F02115011F0FA
:1008500082FFF9CF82E20E944F02F701808381E29A
:100860000E944F02F7018183DF91CF911F910F9179
:10087000FF90EF90DF9008950F931F93DF93CF9336
:10088000CDB7DEB72A970FB6F894DEBF0FBECDBF47
:1008900023E92A8320E72B83DC01CE010296FC01A9
:1008A0003296182F092F9E01275F3F4F8D9181931C
:1008B000E217F307D9F7812F902F67E0AF010E946D
:1008C000FE038CE0612F702F49E0212F302F8E0125
:1008D0000F5F1F4F0E94A902882329F48981883164
:1008E00011F48A8101C080E02A960FB6F894DEBF29
:1008F0000FBECDBFCF91DF911F910F9108950F9340
:100900001F93DF93CF9300D000D00F92CDB7DEB707
:1009100080E58A831B828E010E5F1F4FA8014E5F08
:100920005F4FC80162E00E94FE038CE0B80144E022
:1009300098018E010F5F1F4F0E94A9020F900F9028
:100940000F900F900F90CF91DF911F910F9108950D
:1009500080EB84B981E58CBD08958EBD0DB407FE92
:10096000FDCF089580E484B98CBD08951EBC0DB4FC
:1009700007FEFDCF8EB508951092C5008DE48093DB
:10098000C40088E18093C10086E08093C20008958E
:100990008091C00087FFFCCF8091C6000895982FFA
:1009A0008091C00085FFFCCF9093C60008955298B7
:1009B00053985498559A569A579A249A5D985E98E7
:1009C0005F982C985D9A28E93AE3C9010197F1F7FD
:1009D0004A9B03C021E030E049C04B9B03C022E0AA
:1009E00030E044C04C9B03C023E030E03FC05D9842
:1009F0005E9AC9010197F1F74A9B03C024E030E0F9
:100A000035C04B9B03C025E030E030C04C9B03C099
:100A100026E030E02BC05E985F9AC9010197F1F79C
:100A20004A9B03C027E030E021C04B9B03C028E075
:100A300030E01CC04C9B03C029E030E017C05F9839
:100A40002C9AC9010197F1F74A9B03C02AE030E0D4
:100A50000DC04B9B03C02BE030E008C04C9B03C093
:100A60002CE030E003C02C9824E630E0C901089562
:100A7000AC018091C00085FFFCCF80E48093C6006C
:100A80008091C00087FFFCCF8091C600803489F43C
:100A900020E030E0FA01E20FF31FE0818091C00016
:100AA00085FFFCCFE093C6002F5F3F4F283C310508
:100AB00089F7089588E192E00E94F8130895EF9273
:100AC000FF920F931F9381E08093190205E010E0DD
:100AD00010931D0200931C02B0EEEB2EF12CF0924D
:100AE0001F02E0921E0280E091E00E94B71A80EFA0
:100AF00090E090931D0280931C02F0921F02E092FE
:100B00001E028CE091E00E94B71A10931D02009320
:100B10001C0210931F0200931E0282E080931902B0
:100B20001F910F91FF90EF9008956F927F928F9297
:100B30009F92AF92BF92CF92DF92EF92FF920F936C
:100B40001F938FEF9FEF9093250280932402A4E2DE
:100B5000CA2EA2E0DA2E82E080931902F4EFAF2EC3
:100B6000FFEFBF2EAC0CBD1CC5010E94F601C501F4
:100B700060E070E040E050E020EA30E008E710E09C
:100B8000EFE0EE2EF12C0E9481148FE090E0909324
:100B900027028093260298EF892E9FEF992E8C0CC6
:100BA0009D1C88E290E0F401918380838AEF9FEF9F
:100BB000C80ED91E82E3682E712CF6017182608204
:100BC00088E191E00E94B71AC50160EA70E040E058
:100BD00050E020EA30E0B0EEEB2EB3E0FB2E0E94B6
:100BE000811480EE93E0909327028093260288EC94
:100BF00090E0F40191838083F6017182608280E24B
:100C000091E00E94B71AC50160E070E048E750E04B
:100C100020EA30E0AFE0EA2EA8E7FA2E0E94811425
:100C20008FE098E790932702809326028EE190E070
:100C3000F40191838083FAEA6F2E712CF6017182A0
:100C4000608286E291E00E94B71AC50160EA70E016
:100C500048E750E020EA30E0E12CE8EFFE2E0E9469
:100C6000811480E098EF909327028093260282ED12
:100C700090E0F40191838083F6017182608280E3C9
:100C800091E00E94B71A1F910F91FF90EF90DF90B3
:100C9000CF90BF90AF909F908F907F906F9008956E
:100CA0002F923F924F925F926F927F928F929F927C
:100CB000AF92BF92CF92DF92EF92FF920F931F936A
:100CC000CF93DF9385E08093190288E192E00E9440
:100CD000F6012CE2222E21E0322E9CE3492E512CEB
:100CE00082E3682E712C0BE4802E912C14E6A12E49
:100CF000B12C0E94D704EC0180ED97E0F10131970F
:100D0000F1F70197D9F788E192E060E070E040E008
:100D100050E020E431E000EF10E0EE24EA94FE2CF5
:100D20000E948114CC24CA94DC2CD0922702C09259
:100D3000260250921D0240921C0270921F02609285
:100D40001E02109225021092240285E391E00E9477
:100D5000B71A90921D0280921C02B0921F02A092BC
:100D60001E028DE391E00E94B71A88E192E060E0F4
:100D700070E040E050E020E431E0E12CB8EFFB2EE1
:100D80000E94811480E098EF9093270280932602BE
:100D900050921D0240921C0270921F0260921E022D
:100DA000D0922502C092240285E391E00E94B71AF6
:100DB00090921D0280921C02B0921F02A0921E020D
:100DC0008DE391E00E94B71A259709F092CF88E150
:100DD00092E00E94F6010E949505DF91CF911F914C
:100DE0000F91FF90EF90DF90CF90BF90AF909F90CA
:100DF0008F907F906F905F904F903F902F900895CD
:100E0000CF92DF92EF92FF920F931F938FEF9FEF9E
:100E1000909325028093240283E08093190288E155
:100E200092E00E94F60188E192E060E070E040E02C
:100E300050E020E431E008E710E0EE24FF240E94B7
:100E40008114109227021092260280E590E0909380
:100E50001D0280931C0282E390E090931F02809316
:100E60001E0284E491E00E94B71A88E192E060E0FB
:100E700070E048E750E020E431E0E12CF8EFFF2E8D
:100E80000E94811488E192E060E070E048E750E061
:100E900020E431E009E710E0E5E0EE2ECC24CA942E
:100EA000DC2C0E94A61680E098EF90932702809396
:100EB000260284E690E090931D0280931C028AEA49
:100EC00090E090931F0280931E028FE491E00E94B5
:100ED000B71A8091C00085FFFCCF83E48093C600E1
:100EE00011E00E94D7049C018091C00087FFFCCFD5
:100EF0008091C600803361F588E192E060E070E0A7
:100F000040E050E020E431E000EF10E0EE24FF2468
:100F10000E948114109227021092260281E490E030
:100F200090931D0280931C0280E590E090931F0235
:100F300080931E0287E591E00E94B71A80E197E254
:100F40002CE231E0F9013197F1F70197D9F70AC0A6
:100F500025303105A1F48091C00085FFFCCF80E3EE
:100F60008093C60088E192E00E94F6010E949505F8
:100F70001F910F91FF90EF90DF90CF900895809197
:100F8000C00085FFFCCF1093C600ABCF8F929F921D
:100F9000AF92BF92CF92DF92EF92FF920F931F9387
:100FA000CF93DF938FEF9FEF9093250280932402DE
:100FB00083E08093190288E192E00E94F60188E1C3
:100FC00092E060E070E040E050E020E431E008E7CB
:100FD00010E0EE24FF240E94811410922702109248
:100FE00026028DE290E090931D0280931C0282E322
:100FF00090E090931F0280931E0283E691E00E948E
:10100000B71A88E192E060E070E048E750E020EA3B
:1010100030E0A0EEEA2EA3E0FA2E0E94811480EECA
:1010200093E090932702809326028EE190E09093C4
:101030001D0280931C02FAEACF2ED12CD0921F02FF
:10104000C0921E0281E791E00E94B71A88E192E007
:1010500060EA70E048E750E020EA30E0E12CE8EF99
:10106000FE2E0E94811480E098EF909327028093D7
:10107000260280EB90E090931D0280931C02D09298
:101080001F02C0921E0288E791E00E94B71A809169
:10109000C00085FFFCCF86E58093C6002A9AAA246B
:1010A000BB24BCE28B2EB1E09B2EFF24F3940E9464
:1010B000D704EC01A114B104E9F488E192E060E006
:1010C00070E048E750E020EA30E009E710E0A5E0F2
:1010D000EA2ECC24CA94DC2C0E94A61688E192E069
:1010E00060EA70E048E750E020EA30E0C12CF8EF19
:1010F000DF2E1DC088E192E060E070E048E750E03C
:1011000020EA30E009E710E0E5E0EE2EB0EECB2E6D
:10111000B3E0DB2E0E94A61688E192E060EA70E060
:1011200048E750E020EA30E0CC24CA94DC2C0E944E
:10113000A616C630D10541F488EE93E0F40131974C
:10114000F1F70197D9F731C0C430D10551F488EED9
:1011500093E0F4013197F1F70197D9F7AA24BB2462
:1011600027C0259729F581E0A816B10471F488E11C
:1011700092E00E94F6010E9495058091C00085FFD3
:10118000FCCF80E38093C60002C00E9400072A982B
:10119000DF91CF911F910F91FF90EF90DF90CF9053
:1011A000BF90AF909F908F900895A1E0AA2EB12C90
:1011B0008091C00085FFFCCFF092C60078CF80916F
:1011C000C600843519F40E94F10807C0863519F06D
:1011D00020E030E004C00E94C60721E030E0C901F1
:1011E00008956F927F928F929F92AF92BF92CF920B
:1011F000DF92EF92FF920F931F93DF93CF93CDB7C0
:10120000DEB7C85CD0400FB6F894DEBF0FBECDBFCE
:101210008FEF9FEF909325028093240288E192E064
:101220000E94F60188E192E060E070E040E050E06A
:1012300020E431E000EF10E0EFE0EE2EF12C0E9410
:1012400081148FE090E0909327028093260281E43E
:1012500090E090931D0280931C0280E590E09093B3
:101260001F0280931E0283E08093190280E891E0C0
:101270000E94B71A82E0809319022A9A8091C000D6
:1012800085FFFCCF84E58093C600FE0131969E0168
:1012900027533F4F8091C00087FFFCCF8091C6004D
:1012A0008083882329F420E137E24CE251E005C035
:1012B0003196E217F30771F7F6CFCA010197F1F7FC
:1012C00021503040D1F72A9888E192E00E94F6013F
:1012D00088E192E060E070E040E050E020E431E03E
:1012E00000EF10E0EE24EA94FE2C0E9481148FEFB0
:1012F0009FEF90932702809326021092250210926E
:10130000240205E010E010931D0200931C021093CC
:101310001F0200931E027E010894E11CF11CC7010C
:101320000E94B71A10931D0200931C0280EE90E0F9
:1013300090931F0280931E0281E0809319028CE833
:1013400091E00E94B71A82E08093190205E0C02E56
:10135000D12C470110EEA12EB12C66246394B2E08B
:101360007B2E0E94DF08892BC1F188E192E00E9468
:10137000F60188E192E060E070E040E050E020E4B7
:1013800031E000EF10E0EE24EA94FE2C0E9481147C
:101390008FEF9FEF909327028093260210922502F1
:1013A00010922402D0921D02C0921C02D0921F0201
:1013B000C0921E02C4010E94B71AD0921D02C092B0
:1013C0001C02B0921F02A0921E02609219028CE8C9
:1013D00091E00E94B71A709219020E94D7048530DA
:1013E00009F0BFCF88E192E00E94F6010E949505C6
:1013F000C853DF4F0FB6F894DEBF0FBECDBFCF91FD
:10140000DF911F910F91FF90EF90DF90CF90BF90F1
:10141000AF909F908F907F906F9008958F929F9242
:10142000AF92BF92CF92DF92EF92FF920F931F93F2
:10143000CF93DF938FEF9FEF909325028093240249
:1014400083E08093190288E192E00E94F60188E12E
:1014500092E060E070E040E050E020E431E008E736
:1014600010E0EE24FF240E948114109227021092B3
:1014700026028DE290E090931D0280931C0282E38D
:1014800090E090931F0280931E0283E991E00E94F6
:10149000B71A88E192E060E070E048E750E020EAA7
:1014A00030E0EFE0EE2EF12C0E9481148FE090E00E
:1014B000909327028093260288E290E090931D0289
:1014C00080931C02BAEACB2ED12CD0921F02C0927C
:1014D0001E0281EA91E00E94B71A88E192E060EA78
:1014E00070E048E750E020EA30E0AFE0EA2EA8E7FD
:1014F000FA2E0E9481148FE098E790932702809340
:10150000260289EB90E090931D0280931C02D092FA
:101510001F02C0921E0286EA91E00E94B71AC0E044
:10152000D0E0FCE28F2EF1E09F2E02C0C0E0D0E0C0
:101530000E94D7045C012097F1F488E192E060E01A
:1015400070E048E750E020EA30E009E710E0E5E02D
:10155000EE2ECC24CA94DC2C0E94A61688E192E0E0
:1015600060EA70E048E750E020EA30E0BFE0CB2ED0
:10157000B8E7DB2E1CC088E192E060E070E048E74D
:1015800050E020EA30E009E710E0A5E0EA2EFFE0B5
:10159000CF2ED12C0E94A61688E192E060EA70E07E
:1015A00048E750E020EA30E0CC24CA94DC2C0E94CA
:1015B000A61686E0A816B10451F488EE93E0F40173
:1015C0003197F1F70197D9F7C1E0D0E0B1CF84E0CE
:1015D000A816B10441F488EE93E0F4013197F1F7D5
:1015E0000197D9F7A3CF85E0A816B10409F0A0CFE1
:1015F000219769F48FEF9FEF909327028093260243
:10160000109225021092240220E030E00CC08FEFEF
:101610009FEF90932702809326021092250210924A
:10162000240221E030E0C901DF91CF911F910F9199
:10163000FF90EF90DF90CF90BF90AF909F908F90F2
:1016400008952F923F924F925F926F927F928F9266
:101650009F92AF92BF92CF92DF92EF92FF920F9341
:101660001F93DF93CF93CDB7DEB7C85CD0400FB6E2
:10167000F894DEBF0FBECDBF8FEF9FEF9093270290
:1016800080932602109225021092240288E192E0B3
:101690000E94F601FE013196CE0187539F4F1192B1
:1016A000E817F907E1F780E289831A820E945F0553
:1016B0005E010894A11CB11CC5010E94B71AEE245A
:1016C000FF243501ACE28A2EA1E09A2EF2E04F2EE3
:1016D000512C4C0E5D1E22242A94322C00E210E084
:1016E0000E94DF08892B89F030922702209226027F
:1016F000109225021092240288E192E00E94F601E5
:101700000E945F05C5010E94B71A0E94D7046C01B0
:1017100081E0C816D10441F588E192E00E94F6010B
:101720000F5F1F4F0434110519F401E310E007C0E7
:10173000C80181549040039710F001E410E0F301D8
:10174000EE0DFF1D0083F201EE0DFF1D10820E94C1
:101750005F05C5010E94B71A88EE93E0F401319746
:10176000F1F70197D9F7BCCF82E0C816D10441F553
:1017700088E192E00E94F6010F5F1F4F07341105C8
:1017800019F402E310E007C0C801845490400397A5
:1017900010F004E410E0F301EE0DFF1D0083F201F0
:1017A000EE0DFF1D10820E945F05C5010E94B71A51
:1017B00088EE93E0F4013197F1F70197D9F774C1FE
:1017C00083E0C816D10441F588E192E00E94F60159
:1017D0000F5F1F4F0A34110519F403E310E007C02F
:1017E000C80187549040039710F007E410E0F3011C
:1017F000EE0DFF1D0083F201EE0DFF1D10820E9411
:101800005F05C5010E94B71A88EE93E0F401319795
:10181000F1F70197D9F748C184E0C816D10441F522
:1018200088E192E00E94F6010F5F1F4F0D34110511
:1018300019F404E310E007C0C8018A5490400397EC
:1018400010F00AE410E0F301EE0DFF1D0083F20139
:10185000EE0DFF1D10820E945F05C5010E94B71AA0
:1018600088EE93E0F4013197F1F70197D9F71CC1A5
:1018700085E0C816D10441F588E192E00E94F601A6
:101880000F5F1F4F0035110519F405E310E007C085
:10189000C8018D549040039710F00DE410E0F3015F
:1018A000EE0DFF1D0083F201EE0DFF1D10820E9460
:1018B0005F05C5010E94B71A88EE93E0F4013197E5
:1018C000F1F70197D9F7F0C086E0C816D10441F5C9
:1018D00088E192E00E94F6010F5F1F4F033511056A
:1018E00019F406E310E007C0C80180559040039743
:1018F00010F000E510E0F301EE0DFF1D0083F20192
:10190000EE0DFF1D10820E945F05C5010E94B71AEF
:1019100088EE93E0F4013197F1F70197D9F7C4C04D
:1019200087E0C816D10441F588E192E00E94F601F3
:101930000F5F1F4F0635110519F407E310E007C0CC
:10194000C80183559040039710F003E510E0F301C0
:10195000EE0DFF1D0083F201EE0DFF1D10820E94AF
:101960005F05C5010E94B71A88EE93E0F401319734
:10197000F1F70197D9F798C088E0C816D10441F56E
:1019800088E192E00E94F6010F5F1F4F09351105B3
:1019900019F408E310E007C0C8018655904003978A
:1019A00010F006E510E0F301EE0DFF1D0083F201DB
:1019B000EE0DFF1D10820E945F05C5010E94B71A3F
:1019C00088EE93E0F4013197F1F70197D9F76CC0F5
:1019D00089E0C816D10441F588E192E00E94F60141
:1019E0000F5F1F4F0B35110519F409E310E007C015
:1019F000C80189559040029710F009E510E0F30105
:101A0000EE0DFF1D0083F201EE0DFF1D10820E94FE
:101A10005F05C5010E94B71A88EE93E0F401319783
:101A2000F1F70197D9F740C08BE0C816D10409F54A
:101A300088E192E00E94F6010032110519F000E2FF
:101A400010E002C000E310E0F301EE0DFF1D008383
:101A5000F201EE0DFF1D10820E945F05C5010E947C
:101A6000B71A88EE93E0F4013197F1F70197D9F7AF
:101A70001BC08CE0C816D104B9F4012B51F40E94AC
:101A80000E0A892B09F466C0CE0101960E94380522
:101A900013C084EC99E0F4013197F1F70197D9F77D
:101AA0000894E11CF11C56C08AE0C816D10409F064
:101AB00017CEE114F10401F588E192E00E94F601ED
:101AC0000E949505C853DF4F0FB6F894DEBF0FBED6
:101AD000CDBFCF91DF911F910F91FF90EF90DF90DD
:101AE000CF90BF90AF909F908F907F906F905F90BE
:101AF0004F903F902F900895F301EE0DFF1D80E26F
:101B000080830E945F05C5010E94B71A80EA9FE0AA
:101B1000F4013197F1F70197D9F7F301EE0DFF1DAD
:101B200010820894E108F108F301EE0DFF1D80E238
:101B3000808388E192E00E94F6010E945F05C50162
:101B40000E94B71A80EA9FE0F4013197F1F70197FC
:101B5000D9F7C4CD00E010E0C3CD8F929F92AF9231
:101B6000BF92CF92DF92EF920F931F93CF93DF93A9
:101B70000E949505C0E0D0E0BCE28B2EB1E09B2E28
:101B800002C0C1E0D0E00E94D7045C010E94DF08DF
:101B9000209709F042C088E192E060E070E040E008
:101BA00050E020EA30E009E710E0A5E0EA2ECC247E
:101BB000CA94DC2C0E94A61688E192E060EA70E0EC
:101BC00040E050E020EA30E0F0EECF2EF3E0DF2EF0
:101BD0000E94A61688E192E060E070E048E750E0DD
:101BE00020EA30E0EFE0CE2EE8E7DE2E0E94A616D7
:101BF00088E192E060EA70E048E750E020EA30E0F7
:101C0000C12CB8EFDB2E0E94A61688EE93E0F401FB
:101C10003197F1F70197D9F7D0C0C130D10509F05C
:101C200041C088E192E060E070E040E050E020EAEE
:101C300030E009E710E0A5E0EA2EFFE0CF2ED12C3E
:101C40000E94A61688E192E060EA70E040E050E071
:101C500020EA30E0CC24CA94DC2C0E94A61688E14D
:101C600092E060E070E048E750E020EA30E0EFE02A
:101C7000CE2EE8E7DE2E0E94A61688E192E060EA0A
:101C800070E048E750E020EA30E0C12CB8EFDB2EEE
:101C90000E94A61688EE93E0F4013197F1F70197C0
:101CA000D9F7C8C0C230D10509F041C088E192E03F
:101CB00060E070E040E050E020EA30E009E710E04A
:101CC000A5E0EA2EFFE0CF2ED12C0E94A61688E1D7
:101CD00092E060EA70E040E050E020EA30E0E0EEC0
:101CE000CE2EE3E0DE2E0E94A61688E192E060E0B0
:101CF00070E048E750E020EA30E0CC24CA94DC2CC5
:101D00000E94A61688E192E060EA70E048E750E0A1
:101D100020EA30E0C12CB8EFDB2E0E94A61688EE38
:101D200093E0F4013197F1F70197D9F788C0C330F8
:101D3000D10509F05AC088E192E060E070E040E02F
:101D400050E020EA30E009E710E0A5E0EA2EFFE0ED
:101D5000CF2ED12C0E94A61688E192E060EA70E0B6
:101D600040E050E020EA30E0E0EECE2EE3E0DE2E70
:101D70000E94A61688E192E060E070E048E750E03B
:101D800020EA30E0BFE0CB2EB8E7DB2E0E94A6169B
:101D900088E192E060EA70E048E750E020EA30E055
:101DA000CC24CA94DC2C0E94A61688EE93E0F401A1
:101DB0003197F1F70197D9F72FC086E0A816B10443
:101DC00009F4DFCE88E0A816B10479F430C088E0C9
:101DD000A816B10451F428C086E0A816B10429F46D
:101DE00023C084E0A816B10411F185E0A816B1045F
:101DF00009F0C9CE209719F40E94210BC4CEC1303E
:101E0000D10519F40E940007BECEC230D10509F0F9
:101E1000BACE0E94C607B7CE82E0A816B10409F771
:101E2000B0CEC0E0D0E0AFCEC3E0D0E0ACCEC2E0F8
:101E3000D0E0A9CE84E0A816B10449F6F2CF82E042
:101E4000A816B10449F6EDCF2F923F924F925F92C0
:101E50006F927F928F929F92AF92BF92CF92DF92BA
:101E6000EF92FF920F931F93DF93CF9300D0CDB7E4
:101E7000DEB780EB84B981E58CBD0E9480020E94B0
:101E80007F04FFE0CF2ED12CD0922502C0922402F5
:101E900083E08093190288E192E00E94F60188E1D4
:101EA00092E060E070E040E050E020E431E000EFDC
:101EB00010E0EFE0EE2EF12C0E948114D092270268
:101EC000C092260281E290E090931D0280931C0252
:101ED00006E410E010931F0200931E028FEF9FEFA5
:101EE00090932502809324028DEA91E00E94B71A14
:101EF00010931D0200931C0288E790E090931F024C
:101F000080931E028CEB91E00E94B71A87E30E9437
:101F10004F0285E5282E312C06E4C02ED12CAA24B0
:101F2000AA94BA2C10E5412E512CB8E76B2E712CD7
:101F3000ACE28A2EA1E09A2E0E94D7040E94800271
:101F400082E5BE016E5F7F4F0E94A503CE01019620
:101F50000E94C503182FCE0101960E943C040E94E6
:101F60007F04112349F789818C3409F483C18D34AE
:101F700038F48C3009F403C1863209F0F2C270C221
:101F80008C3D09F4F2C18C3E09F47EC08C3609F018
:101F9000E8C288E192E00E94F60188E192E060E008
:101FA00070E040E050E020E431E000EF10E0F0EEBF
:101FB000EF2EF3E0FF2E0E94811480EE93E09093C9
:101FC00027028093260230921D0220921C02D0929A
:101FD0001F02C0921E02B0922502A09224028CEB36
:101FE00091E00E94B71A50921D0240921C0270921A
:101FF0001F0260921E0285EC91E00E94B71A88E9E8
:102000009AE3F4013197F1F70197D9F788E192E06B
:102010000E94F60188E192E060E070E040E050E06C
:1020200020E431E000EF10E0E0EEEE2EE3E0FE2EE3
:102030000E94811480EE93E0909327028093260201
:1020400030921D0220921C02D0921F02C0921E02EA
:10205000B0922502A09224028FEC91E00E94B71A60
:1020600050921D0240921C0270921F0260921E024A
:1020700087ED91E00E94B71A88E99AE3F40131975D
:10208000F1F70197D9F766C288E192E00E94F60164
:1020900088E192E060E070E040E050E020E431E070
:1020A00000EF10E0B0EEEB2EB3E0FB2E0E948114A7
:1020B00080EE93E0909327028093260230921D02D7
:1020C00020921C02D0921F02C0921E02B0922502E2
:1020D000A09224028CEB91E00E94B71A50921D024C
:1020E00040921C0270921F0260921E0285EC91E0E9
:1020F0000E94B71A88E99AE3F4013197F1F7019742
:10210000D9F788E192E00E94F60188E192E060E070
:1021100070E040E050E020E431E000EF10E0A0EE9D
:10212000EA2EA3E0FA2E0E94811480EE93E09093B1
:1021300027028093260230921D0220921C02D09228
:102140001F02C0921E02B0922502A09224028FECC0
:1021500091E00E94B71A50921D0240921C027092A8
:102160001F0260921E028EED91E00E94B71A88E96C
:102170009AE3F4013197F1F70197D9F7EBC188E1C0
:1021800092E00E94F60188E192E060E070E040E0B9
:1021900050E020E431E000EF10E0F0EEEF2EF3E04D
:1021A000FF2E0E94811480EE93E09093270280938B
:1021B000260230921D0220921C02D0921F02C09271
:1021C0001E02B0922502A09224028CEB91E00E94A4
:1021D000B71A50921D0240921C0270921F02609228
:1021E0001E0285EC91E00E94B71A88E99AE3F40197
:1021F0003197F1F70197D9F788E192E00E94F60153
:1022000088E192E060E070E040E050E020E431E0FE
:1022100000EF10E0E0EEEE2EE3E0FE2E0E948114CF
:1022200080EE93E0909327028093260230921D0265
:1022300020921C02D0921F02C0921E02B092250270
:10224000A09224028FEC91E00E94B71A50921D02D6
:1022500040921C0270921F0260921E0282EE91E078
:102260000E94B71A88E99AE3F4013197F1F70197D0
:10227000D9F770C188E192E00E94F60188E192E00E
:1022800060E070E040E050E020E431E000EF10E07A
:10229000B0EEEB2EB3E0FB2E0E94811480EE93E0B3
:1022A000909327028093260230921D0220921C02F6
:1022B000D0921F02C0921E02B0922502A092240268
:1022C0008CEB91E00E94B71A50921D0240921C02C2
:1022D00070921F0260921E0285EC91E00E94B71A74
:1022E00088E99AE3F4013197F1F70197D9F788E18A
:1022F00092E00E94F60188E192E060E070E040E048
:1023000050E020E431E000EF10E0A0EEEA2EA3E080
:10231000FA2E0E94811480EE93E09093270280931E
:10232000260230921D0220921C02D0921F02C092FF
:102330001E02B0922502A09224028FEC91E00E942E
:10234000B71A50921D0240921C0270921F026092B6
:102350001E0288EE91E00E94B71A88E99AE3F40120
:102360003197F1F70197D9F7F5C088E192E00E9423
:10237000F60188E192E060E070E040E050E020E4A7
:1023800031E000EF10E0F0EEEF2EF3E0FF2E0E94C0
:10239000811480EE93E0909327028093260230927E
:1023A0001D0220921C02D0921F02C0921E02B09207
:1023B0002502A09224028CEB91E00E94B71A509261
:1023C0001D0240921C0270921F0260921E0285EC58
:1023D00091E00E94B71A88E99AE3F4013197F1F786
:1023E0000197D9F788E192E00E94F60188E192E036
:1023F00060E070E040E050E020E431E000EF10E009
:10240000E0EEEE2EE3E0FE2E0E94811480EE93E0DB
:10241000909327028093260230921D0220921C0284
:10242000D0921F02C0921E02B0922502A0922402F6
:102430008FEC91E00E94B71A50921D0240921C024C
:1024400070921F0260921E028EEE91E00E94B71AF7
:1024500088E99AE3F4013197F1F70197D9F77AC047
:1024600088E192E00E94F60188E192E060E070E08D
:1024700040E050E020E431E000EF10E0B0EEEB2E61
:10248000B3E0FB2E0E94811480EE93E0909327022C
:102490008093260230921D0220921C02D0921F02CD
:1024A000C0921E02B0922502A09224028CEB91E011
:1024B0000E94B71A50921D0240921C0270921F0295
:1024C00060921E0285EC91E00E94B71A88E99AE3B7
:1024D000F4013197F1F70197D9F788E192E00E9472
:1024E000F60188E192E060E070E040E050E020E436
:1024F00031E000EF10E0A0EEEA2EA3E0FA2E0E94F9
:10250000811480EE93E0909327028093260230920C
:102510001D0220921C02D0921F02C0921E02B09295
:102520002502A09224028FEC91E00E94B71A5092EB
:102530001D0240921C0270921F0260921E0285EFE3
:1025400091E00E94B71A88E99AE3F4013197F1F714
:102550000197D9F788E192E00E94F6010E94AD0D43
:10256000EBCC88E192E00E94F60188E192E060E025
:1025700070E040E050E020E431E000EF10E0E12CBA
:10258000F8EFFF2E0E94811480E098EF90932702CD
:102590008093260283E290E090931D0280931C02B8
:1025A000D0921F02C0921E02B0922502A092240275
:1025B0008AEF91E00E94B71A88E99AE3F401319713
:1025C000F1F70197D9F788E192E00E94F60188E1DE
:1025D00092E060E070E040E050E020E431E000EFA5
:1025E00010E0EFE0EE2EF12C0E9481148FE090E0DD
:1025F000909327028093260281E290E090931D023F
:1026000080931C02D0921F02C0921E02B09225023B
:10261000A09224028DEA91E00E94B71AD0921D0286
:10262000C0921C0270921F0260921E028CEB91E01D
:102630000E94B71A81CC1F9385B7806885BF85B784
:10264000806885BF8FE781B98DEF82B917B88FEFAA
:1026500088B912981098139A159A149A169A88E2C3
:102660008A95F1F7129A80EB94E02CE231E0F901BF
:102670003197F1F70197D9F78FEF87B988E20E9478
:10268000E90181E10E94E90180EB94E02CE231E074
:10269000F9013197F1F70197D9F784E30E94E90135
:1026A00088E30E94E90183E10E94E90180E20E943F
:1026B000E9018AE30E94E90185E588B91398139A34
:1026C00086E30E94E90188E488B91398139A8CE2A2
:1026D0000E94E90180E090E011C018B81398139AA5
:1026E00018B81398139A18B81398139A2F5F203FAD
:1026F000A1F7019621E08034920711F020E0EDCFA0
:1027000081EB0E94E90118B81398139A18E118B9DF
:102710001398139A83EB0E94E90118B81398139A3F
:1027200018B91398139A89E20E94E90188E192E0AE
:1027300062E00E941C1410922702109226028FEF72
:102740009FEF909325028093240288E192E00E94FB
:10275000F60188E192E00E94361990933902809345
:102760003802119A1F9108950E941B1388E192E08C
:1027700060E00E941C141092C5008DE48093C40098
:1027800088E18093C10086E08093C200229A0E9473
:10279000240F80E090E00895CF92DF92EF92FF92B5
:1027A0000F931F93CF93DF93EC018B016A017901A3
:1027B0008AE20E94E901CE010E94EF01CE01019759
:1027C0008C0D9D1D0E94EF018BE20E94E901C80162
:1027D0000E94EF01C80101978E0D9F1DDF91CF91DF
:1027E0001F910F91FF90EF90DF90CF900C94EF012D
:1027F000FC011582148217821682138A128A158AA6
:10280000148A80E491E0918B808B178A168A118E4E
:10281000108E108221E02183228324E0238320EF85
:1028200030E031872087938782878FEF9FEF9587EE
:102830008487178616860895FC01862F613069F01B
:1028400028F0623019F0633081F407C020E431E0F1
:102850003187208720EF30E006C020EF30E031875D
:10286000208720E431E03387228715821482178283
:10287000168282830C945919FC0177FD1DC0828950
:10288000938968177907C0F020E431E044895589BD
:10289000241B350B6217730778F405C0281B390B0E
:1028A000621B730B09C040895189640F751F681B37
:1028B000790B6217730790F7CB010895FC0177FD40
:1028C0001EC08289938968177907C8F020E431E037
:1028D00044895589241B350B6217730780F409C09E
:1028E000281B390B620F731F841B950B680F791F10
:1028F00006C0408951896417750790F3F5CFCB0165
:1029000008952F923F924F925F926F927F928F9293
:102910009F92AF92BF92CF92DF92EF92FF920F936E
:102920001F93CF93DF9300D000D000D0CDB7DEB798
:102930003C01362E272E5E834D836901470180E4DA
:10294000A82EBB24B3940115110509F4F1C0C114DC
:10295000D10409F4EDC0F3018081882309F4ACC0EF
:10296000C3010E946619F82E81110AC09C2D8D2D7D
:102970006801092F182FC1013D802E809D838E8311
:102980006D817E81C3010E945E14AC01F3018289D6
:102990009389481759070CF0ABC09801240F351FD5
:1029A000281739070CF0B0C0A3C09801240F351FB9
:1029B0002817390708F0B8C04D805E80400E511EC0
:1029C000F301848995899501281B390B2415350558
:1029D000B8F58D819E818217930790F5281B390BDE
:1029E000F11016C074018601432D522DBC01C301A4
:1029F0000E948114F301848995899501281B390B64
:102A00006201C21AD30A3D822E82328823889BCF6C
:102A10007401890196014D815E81632D722DC30180
:102A20000E948114F301848995899501281B390B33
:102A30008201021B130B828993899E838D8383CF2E
:102A40009601F3016689778946175707C8F4CA01CA
:102A5000800F911F8617970708F46AC0CB01841B6B
:102A6000950B081B190BC301CB823C8349835A8306
:102A70000E943C149E838D835A8149813C812B8125
:102A800080E491E0F301608D718D861B970B4817F0
:102A9000590708F04DC0400F511F8417950720F4C7
:102AA000080F191F041B150BF11006C0A801632D98
:102AB000722D8D819E8106C09801A6016D817E8157
:102AC000832D922D0E94CC130E9470190DC0A12C51
:102AD000B12CC4010E94EF01FFEFAF1ABF0AAC1482
:102AE000BD04B9F7015011090115110581F720C086
:102AF000F301848995899501281B390BC901421777
:102B0000530708F452CF58CF841B950B081B190BA1
:102B1000F3010088F189E02DFE83ED83BF01C3013D
:102B20000E945E14AC0148CF8C01041B150B44CFEE
:102B300026960FB6F894DEBF0FBECDBFDF91CF91C2
:102B40001F910F91FF90EF90DF90CF90BF90AF90CB
:102B50009F908F907F906F905F904F903F902F90BD
:102B600008954F925F926F927F928F929F92AF9251
:102B7000BF92CF92DF92EF92FF920F931F93CF936A
:102B8000DF935B016A01E901FC012085318526178D
:102B9000370720F45901F1E0AF1AB1082C173D07AF
:102BA00010F4E9012197FC01228533852C153D05A0
:102BB00020F46901F1E0CF1AD1082017310718F489
:102BC000890101501109AC16BD0671F40C151D05E3
:102BD00030F4C026D1260C251D25C026D1260C197F
:102BE0001D0921E030E011C0C016D10699F4CA15C4
:102BF000DB0530F4AC26BD26CA25DB25AC26BD2678
:102C00009E012A193B0901E010E0A601B5010E94CE
:102C100081148BC03E016A187B0877FE03C0719453
:102C20006194710848018C189D0897FE03C0919427
:102C30008194910868147904E0F50C151D0560F481
:102C4000AC26BD26CA25DB25AC26BD26C026D1264E
:102C50000C251D25C026D126412C512C26C0C20191
:102C6000B4010E94511ACA15DB0518F42FEF3FEF8B
:102C700002C021E030E0269FC001279F900D369FC3
:102C8000900D112421E030E041E050E0B6018A0DC2
:102C90009B1D0E94CC130E947019C7010E94EF0176
:102CA0004FEFC41AD40A460C571C0C151D05B8F674
:102CB0003CC0CA15DB0560F4AC26BD26CA25DB2561
:102CC000AC26BD26C026D1260C251D25C026D12622
:102CD000412C512C27C0C201B3010E94511A0C157E
:102CE0001D0518F42FEF3FEF02C021E030E0269FD2
:102CF000C001279F900D369F900D11248C0D9D1DB6
:102D000021E030E041E050E0BC01C5010E94CC135D
:102D10000E947019C7010E94EF018FEFA81AB80A2C
:102D2000480C591CCA15DB05B0F6DF91CF911F91F5
:102D30000F91FF90EF90DF90CF90BF90AF909F905A
:102D40008F907F906F905F904F9008952F923F9259
:102D50004F925F926F927F928F929F92AF92BF92AB
:102D6000CF92DF92EF92FF920F931F93CF93DF9357
:102D700000D000D000D0CDB7DEB79E838D835B013D
:102D80004A013A8329831C830B836E2C712C190111
:102D9000261837087601830191010E9481144B8027
:102DA0005C804618570869817A816A0D7B1D661917
:102DB000770982019301A4018D819E810E94811473
:102DC000A301480D591D9301B5018D819E810E947B
:102DD00081144B815C81480D591D46195709B30177
:102DE0006A0D7B1D830191018D819E810E9481145A
:102DF00026960FB6F894DEBF0FBECDBFDF91CF9100
:102E00001F910F91FF90EF90DF90CF90BF90AF9008
:102E10009F908F907F906F905F904F903F902F90FA
:102E200008952F923F924F925F926F927F928F926E
:102E30009F92AF92BF92CF92DF92EF92FF920F9349
:102E40001F93CF93DF9300D000D000D0CDB7DEB773
:102E50009E838D836B83FC01A480B58080859185E2
:102E6000A816B9060CF087C1868097808285938565
:102E7000881699060CF07FC11FC1732E770C770C52
:102E8000770C432E440C430E440CED81FE8180816F
:102E9000882309F485C0CF010E9466198A8388239C
:102EA00021F04982272C840103C07982242C8501DA
:102EB000B8018D819E810E945E146C01ED81FE81BE
:102EC0003288832D9389C816D9060CF010C1A6014B
:102ED000420D511D481759070CF0FAC008C1A60150
:102EE000420D511D4817590708F00EC1522C7801A8
:102EF000312CED81FE8166887788C614D704C8F42A
:102F0000E32CF12CC601850D911D8E199F098615A4
:102F1000970508F430C1B301CF010E943C148C0125
:102F2000EC18FD08E60CF71C3E2CAC014E195109BB
:102F30007A0180E491E0ED81FE81408D518D841B0A
:102F4000950BC816D90608F016C1432D50E0B601FE
:102F5000650D711D641B750B8617970718F4582EA5
:102F60005C18530CED81FE81648975892A812111D9
:102F7000DEC0F7C0E50CF11CE41AF50ABB24B394DB
:102F80008E159F0508F4E1C0F4C0B701650D711DF1
:102F9000641B750B722C642C86179707A8F0D1C0A0
:102FA0004982572C642C74018401C501B12C312C49
:102FB000CAC020E431E0ED81FE8144895589241B9B
:102FC000350B922E981A08C0C501942CA12C2224EE
:102FD0002394B12C02C0962C212C2B81C22ED12CF3
:102FE00040E2C41AD10823E0CC0CDD1C2A95E1F79D
:102FF000492D50E04A195109272D30E0B8010E94AF
:10300000CC130E947019832C49C0222079F09701BB
:10301000280D311DED81FE818489958940E451E0C0
:10302000481B590B2417350709F471C0ED81FE8147
:103030003181882D632F0E94451AF601E80FF11D9A
:10304000E458FF4F24918A2D0E94451A01C0220F97
:103050008A95EAF74A2C1FC0ED81FE8127FF03C045
:103060008485958502C0868597852C830E94EF0113
:103070002C81ED81FE814181842D642F0E94451AAF
:10308000892F90E0642F70E06150710986179707CF
:1030900009F4220F43944914F8F28394851408F438
:1030A000B4CFBB2009F467C0ED81FE81828993898A
:1030B000A92CB12C962C9CCFED81FE813181C501CC
:1030C000F6E03F9F800D911D112497FFD6CE53C08F
:1030D0003C18ED81FE81008911897801E318F1081F
:1030E000B801CF010E945E146C01522C02CF80E423
:1030F00091E0ED81FE8144895589841B950BC816AA
:10310000D90608F4ECCEF2CE582E5C18F0CEED8144
:10311000FE8162897389272D30E0498150E08481E6
:1031200095810E94CC130E947019212C7FCF80E4DE
:1031300091E0861B970BE816F90608F426CF722C4F
:10314000642CC501B12CA12C46CF7980652C572C5D
:103150002982A32C7401C8018401312CB11029CF1C
:103160003ACF80E491E0861B970BE816F90608F445
:1031700001CFB12CEACF26960FB6F894DEBF0FBE72
:10318000CDBFDF91CF911F910F91FF90EF90DF9016
:10319000CF90BF90AF909F908F907F906F905F90F7
:1031A0004F903F902F900895FC01828161118C5FB8
:1031B0000C9459190F931F93CF93DF938C01EB015C
:1031C00087E30E94E901F8018281833049F082306F
:1031D00039F0CE010E94EF01F801D18BC08B05C000
:1031E00080E491E08C1B9D0BF5CFDF91CF911F9177
:1031F0000F910895CF92DF92EF92FF920F931F935A
:10320000CF93DF936C017B018A01C0E4D1E0C61B40
:10321000D70BC41BD50B83E30E94E901F601828121
:10322000833089F0823039F40EC0F601F38AE28AE5
:10323000158B048B12C0C7010E94EF01CE010E94C2
:10324000EF01C80107C0C8010E94EF01CE010E9432
:10325000EF01C7010E94EF01E8CFDF91CF911F91ED
:103260000F91FF90EF90DF90CF90089590933302ED
:10327000809332028091340290913502892B51F46F
:1032800060E070E083E09AE10E946B1A909335024F
:1032900080933402809134029091350208951498FD
:1032A00088B91398139A149A089588B91398139AA1
:1032B0000895CF93C82F86E30E94E901EC2FF0E038
:1032C000E15FFD4F8081CF910C945519FC019281F3
:1032D00081E0913021F0933011F080E0089508955D
:1032E0008CE20C94E901CF93C82F892F0E945519C5
:1032F0008C2FCF910C945519CF92DF92EF92FF92C1
:103300000F931F93CF93DF93EC011D821C824981A1
:1033100088E0489FA00111248E819F81840F951F12
:103320009F838E832A853B85840F951F2817390735
:1033300020F5DE84CF8408851985A80160E070E05F
:1033400080E090E00E94CC130E94701911C0EA84C2
:10335000FB8409C081E0E81AF1088C2D0E94551900
:103360008D2D0E945519E114F104A1F701501109A6
:103370000115110561F71F821E82DF91CF911F9108
:103380000F91FF90EF90DF90CF9008950F931F93D0
:10339000CF93DF93EC0188810C811D81882369F034
:1033A000CE010E946619811108C018C0CE01DF91BC
:1033B000CF911F910F910C947C19898126E0829FF7
:1033C000C0011124080F191F1D830C83080F191F3A
:1033D000288539852017310788F4E8CFB801CE0158
:1033E0000E945E142981BC0136E0239F600D711D8F
:1033F0001124CE010E943C149D838C83DF91CF91D8
:103400001F910F910895CF93DF93C0913202D09115
:103410003302893031F08A3041F5CE010E947C19A7
:103420002FC02C813D81698186E0689FB001112405
:10343000C9010E94511A009721F0281B390B3D83C6
:103440002C83CE010E94C619698186E0689FB00175
:1034500011248C819D810E94511ACB016B8170E0F7
:103460000E94511A892B69F70BC0982F9052903601
:1034700038F4682FCE010E941117CE010E94C619A0
:1034800080E090E0DF91CF910895991B79E004C02E
:10349000991F961708F0961B881F7A95C9F7809593
:1034A0000895AA1BBB1B51E107C0AA1FBB1FA6178B
:1034B000B70710F0A61BB70B881F991F5A95A9F7DD
:1034C00080959095BC01CD010895EE0FFF1F0590EA
:1034D000F491E02D09940F931F93CF93DF938C0108
:1034E000EB01009731F46115710519F420E030E02B
:1034F00038C081E090E06EE070E00E94EC1AFC01C0
:103500009C01009771F180E88383209771F0D38745
:10351000C28781E883838091360290913702892B9C
:1035200021F4F0933702E093360201151105C9F03A
:103530001187008783818260838380913802909114
:103540003902892B71F4F0933902E09338028091AB
:103550003A0290913B02892B21F4F0933B02E093D5
:103560003A02C901DF91CF911F910F9108950F93F6
:103570001F93CF93DF938C01E0913802F0913902D1
:10358000838181FF21C0C0E0D0E00DC0E09138020E
:10359000F091390220853185BF01F9010995892B08
:1035A00011F0CFEFDFEFF80181918F01882371F7E0
:1035B000E0913802F0913902208531858AE0BF011F
:1035C000F9010995892B11F0CFEFDFEFCE01DF91E3
:1035D000CF911F910F9108950F931F93CF93DF9376
:1035E000689F8001699F100D789F100D1124C801FC
:1035F0000E94081BEC01009729F060E070E0A80130
:103600000E940D1CCE01DF91CF911F910F91089563
:10361000CF93DF93BC018230910510F462E070E03B
:10362000A0913E02B0913F02ED01E0E0F0E040E009
:1036300050E021C0888199818617970769F48A81B3
:103640009B81309719F09383828304C090933F024B
:1036500080933E02FE0134C06817790738F44115A3
:10366000510519F08417950708F4AC01FE018A8111
:103670009B819C01E9012097E9F641155105A9F1CB
:10368000CA01861B970B049708F4BA01E0E0F0E04A
:103690002AC08D919C91119784179507F9F46417AE
:1036A000750781F412968D919C911397309719F0BC
:1036B0009383828304C090933F0280933E02FD0176
:1036C00032964FC0CA01861B970BFD01E80FF91F08
:1036D0006193719302978D939C9343C0FD01828106
:1036E00093819C01D9011097A1F680913C029091A1
:1036F0003D02892B41F480910B0290910C02909332
:103700003D0280933C0240910D0250910E02411502
:10371000510541F44DB75EB78091090290910A02BC
:10372000481B590B20913C0230913D02241735076C
:10373000B0F4CA01821B930B8617970780F0AB0188
:103740004E5F5F4F8417950750F0420F531F509301
:103750003D0240933C02F9016193719302C0E0E0A5
:10376000F0E0CF01DF91CF910895CF93DF930097E1
:1037700009F450C0EC0122971B821A82A0913E02EC
:10378000B0913F02109709F140E050E0AC17BD073F
:1037900008F1BB83AA83FE0121913191E20FF31F4F
:1037A000AE17BF0779F48D919C911197280F391F9F
:1037B0002E5F3F4F3983288312968D919C911397EA
:1037C0009B838A834115510571F4D0933F02C093C6
:1037D0003E0220C012968D919C911397AD010097E7
:1037E00011F0DC01D3CFFA01D383C283219131914F
:1037F000E20FF31FCE17DF0769F488819981280F44
:10380000391F2E5F3F4FFA01318320838A819B81CC
:1038100093838283DF91CF910895DC0101C06D9382
:0C38200041505040E0F70895F894FFCFAD
:10382C0044656C6574652F4261636B00416363652D
:10383C0070742F53656E64004D657373616765001A
:10384C00566F69636500546573742043616C6C003A
:10385C0047616D650048454C50204953004E454525
:10386C004445440043616C6C696E672E2E2E0048F3
:10387C00616E672055700043616C6C204661696C09
:10388C0065640043616C6C20496E636F6D696E6793
:10389C0000416363657074004465636C696E650018
:1038AC004E6577204D65737361676500352D6261D8
:1038BC00636B0053656E64204D6573736167653F80
:1038CC000053656E640043616E63656C00506C65FB
:1038DC0061736520636F6E6669726D004964656E15
:1038EC007469747900436F6E6669726D6564005714
:1038FC00656C636F6D650047726973686100536135
:10390C006D00436872697300436C61726B00416EA9
:10391C006472656100417269660055534552204ED0
:10392C004F5420464F554E440020004002000028C2
:08393C0048E88868D8A81800CB
:00000001FF
