:100000000C94BF010C94E7010C94E7010C94E701F8
:100010000C9481090C94E7010C94E7010C94E7011E
:100020000C94E7010C94E7010C94E7010C94E701B0
:100030000C94E7010C94E7010C94E7010C94E701A0
:100040000C94E7010C94E7010C94E7010C94E70190
:100050000C94E7010C94E7010C94E7010C94E70180
:100060000C94290F0C94E7010C94E7010C94E70120
:100070000C94E7010C94E7010C94E70102000000E6
:1000800000000001222020200000200152505000DA
:10009000000000015250F850F85050012278A07032
:1000A00028F02001C2C81020409818016290A0409A
:1000B000A89068016220400000000001122040402A
:1000C0004020100142201010102040010220A87092
:1000D000A8200001022020F82020000102000000DA
:1000E00000602041020000F8000000010200000052
:1000F000006060010208102040800001728898A80A
:10010000C8887001226020202020700172880810A9
:100110002040F801FA102010088870011230509029
:10012000F8101001FA80F00808887001324080F061
:1001300088887001FA081020404040017288887059
:1001400088887001728888780810600102606000F9
:100150006060000102606000602040011220408069
:10016000402010010200F800F800000142201008B1
:100170001020400172880810200020017288086851
:10018000A8A8700172888888F8888801F28888F0A9
:100190008888F0017288808080887001E290888869
:1001A0008890E001FA8080F08080F801FA8080F089
:1001B00080808001728880B8888878018A8888F871
:1001C0008888880172202020202070013A101010A9
:1001D000109060018A90A0C0A090880182808080E9
:1001E0008080F8018AD8A8A8888888018A88C8A849
:1001F000988888017288888888887001F28888F0D9
:100200008080800172888888A8906801F28888F0D0
:10021000A09088017A8080700808F001FA202020E0
:10022000202020018A888888888870018A888888A8
:10023000885020018A8888A8A8A850018A88502060
:10024000508888018A88885020202001FA081020D0
:100250004080F801724040404040700102804020E0
:100260001008000172101010101070012250880048
:1002700000000001020000000000F8014220100010
:100280000000000102007008788878018280B0C800
:100290008888F00102007080808870010A086898E0
:1002A0008888780102007088F8807001324840E048
:1002B0004040400102788888780870018280B0C888
:1002C00088888801220060202020700112003010F0
:1002D00010906001828090A0C0A090016220202038
:1002E000202070010200D0A8A8A8A8010200B0C870
:1002F0008888880102007088888870010200F08870
:10030000F080800102006898780808010200B0C8F7
:1003100080808001020070807008F0014240E0405F
:100320004048300102008888889868010200888867
:100330008850200102008888A8A850010200885037
:100340002050880102008888780870010200F810A7
:100350002040F801122020402020100122202020DF
:10036000202020014220201020204001020068901F
:10037000000000010200000000000001A41611248A
:100380001FBECFEFD0E1DEBFCDBF11E0A0E0B1E0F6
:10039000E2E0FAE302C005900D92AA33B107D9F763
:1003A00011E0AAE3B1E001C01D92A73CB107E1F75B
:1003B00013E0CEE7D3E004C02297FE010E943C1870
:1003C000CC37D107C9F70E9472160C94FF1C0C940D
:1003D0000000CF93DF93279A2F9A0E94D00EEAE76E
:1003E000F0E08081806880830E94AB1561E08FE53A
:1003F00091E00E945004CFE5D1E01E861D868FE774
:1004000096E69C878B87CE010E9459059093C40184
:100410008093C3018AE391E00E943A067894119A8E
:1004200060E08AE391E00E9419086D857E85CE0127
:100430000E942C161C821B821E821D82DF91CF918E
:100440000C94AE0ECF92DF92EF92FF920F931F9318
:10045000CF93DF93EC018B016A0179018AE20E945C
:10046000A115CE010E942316CE0101978C0D9D1D72
:100470000E9423168BE20E94A115C8010E94231638
:10048000C80101978E0D9F1DDF91CF911F910F9194
:10049000FF90EF90DF90CF900C942316FC01148214
:1004A00013821682158281E08083818384E08283B7
:1004B00080EF90E09087878380E491E09287818746
:1004C0008FEF9FEF94878387168615860895CF92C6
:1004D000DF92EF92FF920F931F93CF93DF93FB0175
:1004E000BA01E9011C161D060CF051C010161106C8
:1004F0000CF04DC0F7FF04C0CE0FDF1FE0E0F0E0CE
:1005000077FF04C0060F171F60E070E01C161D0681
:10051000F4F510161106DCF5DC0117962D913C91CF
:100520001897AF014C0F5D1F2417350718F4E90128
:10053000CE1BDF0BDC0119968D919C911A979B01C4
:10054000200F311F8217930718F48C01061B170B1D
:100550001C161D06E4F410161106CCF49801AE0129
:10056000CF010E9422020E94BB160EC0C7010E944A
:100570002316BFEFCB1ADB0A02C0C12CD12CCC163C
:10058000DD06A1F70150110901151105B1F7DF9141
:10059000CF911F910F91FF90EF90DF90CF90089532
:1005A0002F923F924F925F926F927F928F929F9283
:1005B000AF92BF92CF92DF92EF92FF920F931F9371
:1005C000CF93DF934C015B016A01E901FC01878154
:1005D00090858617970720F45C01F1E0AF1AB10807
:1005E0008C179D0710F4EC012197F4018185928509
:1005F0008C159D0520F46C01F1E0CF1AD10880170D
:10060000910718F48C0101501109AC16BD0671F464
:100610000C151D0530F4C026D1260C251D25C0263D
:10062000D1260C191D0921E030E011C0C016D106F9
:10063000A1F4CA15DB0530F4AC26BD26CA25DB259E
:10064000AC26BD269E012A193B0901E010E0A60157
:10065000B501C4010E946702A5C02E014A185B08BB
:1006600057FE03C051944194510838016C187D081D
:1006700077FE03C071946194710846145704E0F545
:100680000C151D0560F4AC26BD26CA25DB25AC265D
:10069000BD26C026D1260C251D25C026D126212CFD
:1006A000312C26C0C101B3010E949217CA15DB0587
:1006B00018F42FEF3FEF02C021E030E0269FC00189
:1006C000279F900D369F900D11248A0D9B1DF401DC
:1006D000278130858217930730F421853285C21631
:1006E000D30608F444C0FFEFCF1ADF0A240C351CF0
:1006F0000C151D05B8F656C0CA15DB0560F4AC260E
:10070000BD26CA25DB25AC26BD26C026D1260C2554
:100710001D25C026D126212C312C25C00C151D05E8
:1007200018F42FEF3FEF02C021E030E0F4018781A1
:100730009085A816B90690F4C101B2010E949217E3
:10074000269FC001279F900D369F900D11248C0D80
:100750009D1D2185328582179307B0F0FFEFAF1AF8
:10076000BF0A260C371CCA15DB05C0F61BC021E0EA
:1007700030E041E050E0B6010E9422020E94BB1628
:10078000C7010E942316AFCF21E030E041E050E0E6
:10079000BC01C5010E9422020E94BB16C7010E9433
:1007A0002316DCCFDF91CF911F910F91FF90EF9037
:1007B000DF90CF90BF90AF909F908F907F906F9081
:1007C0005F904F903F902F9008952F923F924F92BD
:1007D0005F926F927F928F929F92AF92BF92CF92D1
:1007E000DF92EF92FF920F931F93CF93DF9300D08E
:1007F00000D000D0CDB7DEB79E838D835B014A0168
:100800003A8329831C830B836E2C712C19012618C3
:1008100037087601830191010E9467024B805C805A
:100820004618570869817A816A0D7B1D6619770918
:1008300082019301A4018D819E810E946702A30120
:10084000480D591D9301B5018D819E810E9467025B
:100850004B815C81480D591D46195709B3016A0D3A
:100860007B1D830191018D819E810E9467022696E6
:100870000FB6F894DEBF0FBECDBFDF91CF911F91B1
:100880000F91FF90EF90DF90CF90BF90AF909F902F
:100890008F907F906F905F904F903F902F90089532
:1008A000FC01862F613069F028F0623019F0633066
:1008B00081F407C020E431E03087278320EF30E067
:1008C00006C020EF30E03087278320E431E0328714
:1008D0002187148213821682158281830C94AE16AE
:1008E000FC01818161118C5F0C94AE16AF92BF92B6
:1008F000CF92DF92EF92FF920F931F93CF93DF93EC
:10090000EC01062F8B819C8148819C0156E0459F1C
:10091000200D311D112437FD47C0B42EBB0CBB0C7C
:10092000BB0CD42EDD0CD40EDD0C6D817E812B2D05
:1009300030E04D2D50E00E9422020E94BB16C12CD7
:10094000112707FD10950052110993E0000F111FA8
:100950009A95E1F727C068818C2D0E948617F801CF
:10096000E80FF11DE458FF4FA490EE24E394F12C1E
:1009700014C0A7FE03C08B859C8502C08D859E8513
:100980000E9423166881C70170E00E94A617892B78
:1009900009F4AA0C8FEFE81AF80A8E2D81508D15F4
:1009A00040F3C394CB10D7CFDF91CF911F910F911C
:1009B000FF90EF90DF90CF90BF90AF900895EF92AF
:1009C000FF920F931F93CF93DF931F92CDB7DEB7A4
:1009D0008C017B0105C0C80149830E941F17498112
:1009E000F701442311F0649101C06081FFEFEF1A19
:1009F000FF0A6111F0CF0F90DF91CF911F910F91FE
:100A0000FF90EF9008957F928F929F92AF92BF9246
:100A1000CF92DF92EF92FF920F931F93CF93DF93CA
:100A20005C01EB01CA01B9019701A8010E942202F1
:100A30000E94BB16912CD12C20E028C0722E7394FA
:100A400021110AC0CE010196CC2021F0FE01EC015B
:100A5000D49002C0D880EC01F501D7FE03C0838595
:100A6000948502C0858596850E942316F8E07F163E
:100A700011F0DD0C01C0712C8394272D01C0812C55
:100A8000882D90E080179107C8F29394892D90E00B
:100A90008E159F05A0F3DF91CF911F910F91FF90CD
:100AA000EF90DF90CF90BF90AF909F908F907F900E
:100AB000089590936F0180936E01809170019091E1
:100AC0007101892B51F460E070E088E597E10E94A4
:100AD00092199093710180937001809170019091AF
:100AE000710108958130910591F08230910559F09E
:100AF000892B99F42598249A85B18F7C85B981B189
:100B00008F7381B908C00F9A1698179A0895259A7D
:100B100024980E9A0F98169A17980895CF93DF93FA
:100B2000EB01863051F4709376016093750181E09A
:100B300090E00E94720587E082C0873009F08CC087
:100B4000709374016093730180E090E00E947205DD
:100B5000069979C080917501909176016091770135
:100B6000662339F170917801E72FF0E0DF01AA0FD9
:100B7000BB1FA758BE4F2D913C91AE01421B530B9A
:100B800057FF03C0519541955109EE0FFF1FE756DE
:100B9000FE4F20813181FC01E21BF30B9F01F7FF27
:100BA00003C0319521953109240F351F28313105B6
:100BB00074F021E02093770110927801D0937A01AC
:100BC000C093790190939A018093990133C0603169
:100BD000A8F4E62FF0E0DF01AA0FBB1FA758BE4F15
:100BE000CD93DC93EE0FFF1FE756FE4F918380837A
:100BF000609378016F5F609377011CC0272F2F5F90
:100C0000203119F02093780102C010927801E09110
:100C10007801F0E0DF01AA0FBB1FA758BE4FCD93AC
:100C2000DC93EE0FFF1FE756FE4F9183808381E038
:100C30008093720182E090E00E94720586E0DF916D
:100C4000CF910C94F30E1092770110927201809163
:100C50006800816080936800DF91CF910895FC0166
:100C600074A363A3168213821282158214821182E6
:100C7000108208951092720180E090E00E94720547
:100C800060E480E00E947A0F809168008160809328
:100C900068008EE895E00E94DC0E06990CC08091F9
:100CA00068008E7F8093680082E090E00E94720569
:100CB00086E00C94F30E08954F925F926F927F92AC
:100CC0008F929F92AF92BF92CF92DF92EF92FF925C
:100CD000CF93DF93EC012B01662457FC6094762CB4
:100CE0008F8C98A0A9A0BAA0CF80D884E984FA8478
:100CF000DA01A70196010E946E176B017C016B85DA
:100D00007C858D859E85A30192010E947617C60E73
:100D1000D71EE81EF91E8F859889A989BA89C80E41
:100D2000D91EEA1EFB1EC701B601A50194010E944F
:100D3000BA17C32EF22ED22EE32E2B893C894D8971
:100D40005E898F89988DA98DBA8D280F391F4A1F0A
:100D50005B1FC301B2010E9476174B8C5C8C6D8CBB
:100D60007E8C640D751D861D971DA50194010E9442
:100D7000BA17EBA1FCA16181613039F0633029F031
:100D80008F2D9C2D6230A9F408C087819085821B2D
:100D9000930B2D2D3E2D6330A9F747815085BA0165
:100DA000681B790BCB0141855285BA01621B730B1D
:100DB0009B01BC01C901DF91CF91FF90EF90DF90C3
:100DC000CF90BF90AF909F908F907F906F905F90EB
:100DD0004F900895CF92DF92EF92FF920F931F935F
:100DE000E9E7F1E000E010E09801C12CD12C760198
:100DF00041915191C40ED51EE11CF11C468D578DB9
:100E0000040F151F211D311D41E0E939F40781F759
:100E100044E0F694E794D794C7944A95D1F7B60185
:100E200054E036952795179507955A95D1F7DC012B
:100E30001696EC91EE2329F0A601B8010E945C06FB
:100E400002C0802F912F1F910F91FF90EF90DF90A4
:100E5000CF9008954F925F926F927F92AF92BF9220
:100E6000CF92DF92EF92FF920F931F93CF93DF9376
:100E7000EC012A013B01BA016A507109790101E0D4
:100E800010E024E130E0A3018BA19CA10E94670245
:100E9000A3014A50510904E110E021E030E0B20121
:100EA0008BA19CA10E946702DF91CF911F910F91AE
:100EB000FF90EF90DF90CF90BF90AF907F906F90BA
:100EC0005F904F900895FF920F931F93CF93DF93FE
:100ED0008C01F62EDC019396ED91FC91949766239C
:100EE00019F0B2E06B130BC06781708580E090E071
:100EF0000E9491132DEC3CEC4CE45EE310C081E0C9
:100F0000681719F0A3E06A1310C06781708580E04C
:100F100090E00E9491132DEC3CEC4CE45FE30E94C6
:100F20005C110E944213EB0104C0C781D085D695A5
:100F3000C795D8019396ED91FC919497B1E0BF15B8
:100F400058F06185728580E090E00E9491132DEC4D
:100F50003CEC4CE45EE30EC08F2D8250823080F476
:100F60006185728580E090E00E9491132DEC3CEC4D
:100F70004CE45FE30E945C110E9442139B0104C099
:100F80002185328536952795BE01C901DF91CF9124
:100F90001F910F91FF900895809172010895209103
:100FA00072012223E1F3209172012111FCCF0E94F2
:100FB000EA060895CF93DF93EC01809172018111CD
:100FC00004C0188220E030E030C0CE010E94EA0662
:100FD000FB01AC012881211108C07B836A839D83BA
:100FE0008C83198281E088831EC08981811116C09B
:100FF0002A813B812E1B3F0B37FF03C03195219582
:1010000031098C819D81841B950B97FF03C09195BD
:1010100081959109820F931F40972CF081E089837D
:1010200022E030E002C021E030E0C901DF91CF9141
:101030000895AF92BF92CF92DF92EF92FF920F93FB
:101040001F93CF93DF93CDB7DEB7C454D1090FB64A
:10105000F894DEBF0FBECDBF8C0187E99AE30197FC
:10106000F1F700C0000061110AC10E949D0E8111BC
:1010700006C180917201811102C1F4C01996AD9030
:10108000BC901A9709C0B1E0AB1AB10880E00E9489
:10109000A71580E00E94A715A114B104A1F7E1E013
:1010A000CE1AD108D701C114D10441F714961C926D
:1010B0001E92139716961C921E921597D80193961E
:1010C000ED91FC91949782E080839396ED91FC9151
:1010D0009497B180208181859285B8E02B9F8019FB
:1010E0009109112463E070E00E9492178781908536
:1010F00032E4239F80199109112496958795948352
:1011000083836583768340E06DE271E0CF010E94C6
:10111000DF0460E0D80193968D919C9194970E9492
:101120005004F8011682809172018111FCCFA12C2C
:101130003FC06A2DC8010E9463076B017C012FEF3D
:101140003FEFAB01BC01C8010E942A07C8010E9401
:10115000CF07EA2DF0E0DF01AA0FBB1F21E030E04E
:101160002C0F3D1FA20FB31F6D937C93DF011596CB
:10117000AA0FBB1FA20FB31FCD92DC92DF011A96FC
:10118000AA0FBB1FA20FB31F8D939C933F96EE0F28
:10119000FF1FE20FF31FF182E08220E030E0B70191
:1011A000A601C8010E942A07A39402C0A12CC1CFA6
:1011B00034E03A1508F0BDCFCE0101960E94B10986
:1011C0008823A1F36B2DD80193968D919C919497D0
:1011D0000E9450048DA59EA5AFA5B8A9F8018783EC
:1011E0009087A187B28789A99AA9ABA9BCA983874F
:1011F0009487A587B68789A59AA5ABA5BCA587873F
:10120000908BA18BB28B89AD9AADABADBCAD838B0E
:10121000948BA58BB68B21968CAD9DADAEADBFAD3D
:101220002197878B908FA18FB28F8DA99EA9AFA98F
:10123000B8AD838F948FA58FB68F25968CAD9DAD5D
:10124000AEADBFAD2597878F90A3A1A3B2A381E0D8
:1012500086834CE150E060E070E0C80107960E9490
:10126000181C3DC04CE150E060E070E0C8010796FA
:101270000E94001C81E0D80116968C9330C0F801C2
:10128000E3A0F4A0D7011E961C921E921D978FE733
:1012900096E61C969C938E931B971796CD90DC90A8
:1012A00018971996AD90BC901A978AE20E94A115E2
:1012B00080E090E00E942316C60101970E94231649
:1012C0008BE20E94A11580E090E00E942316C501E8
:1012D00001970E9423168CE20E94A115E3CECC5BFD
:1012E000DF4F0FB6F894DEBF0FBECDBFDF91CF91B9
:1012F0001F910F91FF90EF90DF90CF90BF90AF9034
:1013000008951F920F920FB60F9211242F933F93BF
:101310004F935F936F937F938F939F93AF93BF93FD
:10132000EF93FF9306990CC0809168008E7F8093A5
:10133000680082E090E00E94720586E00E94F30E51
:10134000FF91EF91BF91AF919F918F917F916F919D
:101350005F914F913F912F910F900FBE0F901F9073
:1013600018952F923F924F925F926F927F928F9239
:101370009F92AF92BF92CF92DF92EF92FF920F9324
:101380001F93CF93DF93CDB7DEB7AF970FB6F89427
:10139000DEBF0FBECDBF9E838D839F8F8E8F1C01BE
:1013A00025E0522E00E010E01FA61EA6612C712C35
:1013B000812C912C1B861C861D861E8618861986FC
:1013C0001A86412CA12CB12C19821F821E8A1F8AD9
:1013D000188E198E20E030E040E85FE3BE89AF89C7
:1013E000F88CE98C6B2F7A2F8F2D9E2D0E94001187
:1013F0006A8B7B8B8C8B9D8B6E8B7F8B888F998F71
:10140000D101ED90FD901D01B70180E090E00E94B8
:1014100091139B01AC01D980CF806A2D7B2D8D2D3E
:101420009C2D0E94001168A379A38AA39BA35B0152
:1014300089839F83F101C288D388B60180E090E060
:101440000E9491139B01AC01B885A985FA85FF879D
:101450006B2F7A2F8F2F942D0E9400116F87788B1E
:10146000898B9CA3688779878A87492E9701D70142
:101470000E9462170E9491139B01AC01BB85AC8551
:10148000ED85FE856B2F7A2FCF010E9400116DA391
:101490007EA38FA398A76B877C878D879E879601F5
:1014A000D6010E9462170E9491139B01AC01662D28
:1014B000772D882D992D0E9400116A8F7B8F8C8F3C
:1014C0009D8F3B014C019601D7010E9462170E943B
:1014D00091139B01AC01FFA5EEA5602F712F8F2FFB
:1014E0009E2F0E94001169A77AA78BA79CA78B014A
:1014F0008FA79EA75A9409F06DCF262D372D482D22
:10150000592DBB85AC85FD84EE846B2F7A2F8F2DF2
:101510009E2D0E945C116B017C019FA58EA5202F42
:10152000312F492F582FFC01602F712F8F2F9E2FA5
:101530000E945C119B01AC01C701B6010E942C11F5
:101540001B018DA7592E788569859A85272F362FFF
:10155000492F542DFFA5EEA5602F712F8F2F9E2FA1
:101560000E945C116B017C01262D372D482D592DD1
:1015700099808F806A2D7B2D892D982D0E945C117A
:101580009B01AC01C701B6010E942C113B014C012B
:101590009FA58EA5202F312F492F582FE9811F811C
:1015A0006A2D7B2D8E2F912F0E945C116B017C0187
:1015B0007B856C859D858E85272F362F492F582F4B
:1015C000B885A9851A856B2F7A2F812F942D0E94BB
:1015D0005C119B01AC01C701B6010E942C118B016B
:1015E0008E879B879DA5222D332D492F552DBE8992
:1015F000AF89F88CE98C6B2F7A2F8F2D9E2D0E944E
:101600005C116B017C01262D372D482D592DE98168
:10161000FF816A2D7B2DCF010E945C119B01AC01E3
:10162000C701B6010E9400116B017C019E858B856C
:10163000202F312F492F582FB885A985BA846B2FB9
:101640007A2F8B2D942D0E945C119B01AC01C70158
:10165000B6010E9400116B017C012DEC3CEC4CECBE
:101660005DE37D2D9F2D0E94131387FF0DC02DEC90
:101670003CEC4CEC5DEB6C2D7D2D8E2D9F2D0E9456
:10168000E41218160CF43FC32C2D3D2D4E2D5F2D6A
:10169000BDA4622D732D8B2D952D0E9441126E8B52
:1016A0007F8B888F998F2C2D3D2D4E2D5F2D662D94
:1016B000772D882D992D0E9441126F837887898715
:1016C0009A872C2D3D2D4E2D5F2DFE85EB85602FAD
:1016D000712F8F2F9E2F0E9441126B877C878D87E1
:1016E0009E877A8D6B8D9C8D8D8D272F362F492F60
:1016F000582FBA89AB89EC891D896B2F7A2F8E2FD1
:10170000912F0E945C114B015C017F85688999894A
:101710008CA1272F362F492F582FDB01182F6B2F25
:101720007A2F892F952F0E945C119B01AC01C50176
:10173000B4010E942C112C2D3D2D4E2D5F2D0E94A9
:1017400041126A8F7B8F8C8F9D8F7F8568899989E5
:10175000272F362F492F512FB8A1A9A1EAA11BA1EC
:101760006B2F7A2F8E2F912F0E945C114B015C0101
:1017700079A56AA59BA58CA5272F362F492F582F11
:10178000BA89AB89EC891D896B2F7A2F8E2F912F07
:101790000E945C119B01AC01C501B4010E942C1197
:1017A0002C2D3D2D4E2D5F2D0E944112B62E7F8790
:1017B000888B998B7DA16EA19FA188A5272F362F9D
:1017C000492F582FBA89AB89EC896B2F7A2F8E2F2E
:1017D000912F0E945C112B013C0178A169A19AA173
:1017E0008BA1272F362F492F582FDB016B2F7A2FF4
:1017F000892F952F0E945C119B01AC01C301B2019E
:101800000E942C112C2D3D2D4E2D5F2D0E9441123A
:101810006A8B7B8B8C8B9D8B8D819E819A83898338
:1018200095E0292EC12CD12CE12CF12C712C812C8E
:10183000912CA12C312C412C512C612CA981BA81E5
:101840001A960D911C911B97B80180E090E00E94C0
:1018500091139B01AC01632D742D852D962D0E9453
:101860000011362E472E582E692EE981FA812191DA
:101870003191FA83E983D8010E9462170E94911383
:101880009B01AC01672D782D892D9A2D0E940011A6
:10189000762E872E982EA92EA981BA8152962D9147
:1018A0003C915397D8010E9462170E9491139B01AB
:1018B000AC016C2D7D2D8E2D9F2D0E9400116B0192
:1018C0007C012A9409F0BACF232D342D452D562DB5
:1018D000BE89AF89E88D198D6B2F7A2F8E2F912FAE
:1018E0000E945C1169837A838B839C83272D382D1A
:1018F000492D5A2DBF81A885E9851A856B2F7A2F2E
:101900008E2F912F0E945C119B01AC0169817A811D
:101910008B819C810E94001169837A838B839C83D5
:101920002C2D3D2D4E2D5F2DBB85AC85ED851E8567
:101930006B2F7A2F8E2F912F0E945C119B01AC018F
:1019400069817A818B819C810E94001120E030E0C6
:1019500040E857E40E945C110E944213ED81FE8131
:1019600060A771A782A793A7232D342D452D562D4F
:10197000BF81A885E9851A856B2F7A2F8E2F912F2D
:101980000E945C1169837A838B839C83272D382D79
:10199000492D5A2DBA8DAB8DEC8D1D8D6B2F7A2F65
:1019A0008E2F912F0E945C119B01AC0169817A817D
:1019B0008B819C810E94001169837A838B839C8335
:1019C0002C2D3D2D4E2D5F2DAF85E88919896B2D6E
:1019D0007A2F8E2F912F0E945C119B01AC0169819F
:1019E0007A818B819C810E94001120E030E040E8E8
:1019F00057E40E945C110E944213AD81BE819C9607
:101A00006D937D938D939C939F97232D342D452D1E
:101A1000562DBB85AC85ED851E856B2F7A2F8E2FBD
:101A2000912F0E945C111B012C01272D382D492D6F
:101A30005A2DAF85E88919896B2D7A2F8E2F912F1A
:101A40000E945C119B01AC01C201B1010E94001116
:101A50002B013C012C2D3D2D4E2D5F2DBA89AB89DC
:101A6000EC891D896B2F7A2F8E2F912F0E945C118C
:101A70009B01AC01C301B2010E94001120E030E0E3
:101A800040E857E40E945C110E944213ED81FE8100
:101A900060AB71AB82AB93AB85E0482EE12CF12CAF
:101AA00000E010E0912CA12CC12CD12C1982612CCA
:101AB000712C812CAE8DBF8D5E962D903C905F97E2
:101AC000B10180E090E00E9491139B01AC01B981CB
:101AD0006B2F762D872D982D0E9400116983672E1C
:101AE000782E892EEE8DFF8D21913191FF8FEE8F13
:101AF000D1010E9462170E9491139B01AC01692DD4
:101B00007A2D8C2D9D2D0E940011962EA72E6C01F2
:101B1000AE8DBF8D52962D913C915397D1010E946D
:101B200062170E9491139B01AC016E2D7F2D802FB7
:101B3000912F0E9400117B018C014A9409F0BACFC9
:101B40007981272F362D472D582DBE89AF89588C86
:101B5000498C6B2F7A2F852D942D0E945C111B01CF
:101B60002C01292D3A2D4C2D5D2DBF81A885E985AD
:101B7000FA856B2F7A2FCF010E945C119B01AC017B
:101B8000C201B1010E9400111B012C012E2D3F2D1D
:101B9000402F512FBB85AC85ED85FE856B2F7A2FAD
:101BA000CF010E945C119B01AC01C201B1010E94F6
:101BB000001120E030E040E857E40E945C110E94F0
:101BC0004213ED81FE8164AB75AB86AB97AB798137
:101BD000272F362D472D582DBF81A88559844A843B
:101BE0006B2F7A2F852D942D0E945C111B012C01E7
:101BF000292D3A2D4C2D5D2DBA8DAB8DEC8DFD8DA3
:101C00006B2F7A2FCF010E945C119B01AC01C201A6
:101C1000B1010E9400111B012C012E2D3F2D402FE0
:101C2000512FAF85E889F9896B2D7A2FCF010E945A
:101C30005C119B01AC01C201B1010E94001120E0C6
:101C400030E040E857E40E945C110E944213AD81ED
:101C5000BE81D8966D937D938D939C93DB9779810C
:101C6000272F362D472D582DBB85AC85ED858E84CD
:101C70006B2F7A2F8E2F982D0E945C112B013C0127
:101C8000292D3A2D4C2D5D2DAF85E889D9886B2DF6
:101C90007A2F8E2F9D2D0E945C119B01AC01C301F8
:101CA000B2010E9400114B015C012E2D3F2D402FEF
:101CB000512FBA89AB89EC891D896B2F7A2F8E2F12
:101CC000912F0E945C119B01AC01C501B4010E94DF
:101CD000001120E030E040E857E40E945C110E94CF
:101CE0004213ED81FE8164AF75AF86AF97AFE05CC4
:101CF000FF4F80E090E0A1E0B0E080839183A28379
:101D0000B38381E001C080E0AF960FB6F894DEBFE8
:101D10000FBECDBFDF91CF911F910F91FF90EF903C
:101D2000DF90CF90BF90AF909F908F907F906F90FB
:101D30005F904F903F902F900895809100018A3AD4
:101D400051F48CE190E00E94101C91E08A3A09F471
:101D500090E090930001809100010895809100012E
:101D6000882329F06AEA8CE190E00C94281C0895FD
:101D70008091BB019091BC01009789F0FC0120810A
:101D800031813093BC012093BB01228120937C00E0
:101D90000E94F61880917A00806480937A000895FA
:101DA0008FE180937A001092BA011092B9011092DB
:101DB000BC011092BB010895CF93DF93EC0184E046
:101DC00090E00E945B18FC018091B9019091BA01EA
:101DD00091838083D383C283F093BA01E093B901E6
:101DE000DF91CF9108951F93CF93DF93182FC09168
:101DF000BB01D091BC01209761F480917A0086FDEF
:101E000008C010937C0080917A00806480937A00EF
:101E10001CC083E090E00E945B18FC0111821082DC
:101E20001283ABEBB1E004C0DE010990D881C02D74
:101E30002097D1F7ED93FC9380917A0086FD05C041
:101E4000DF91CF911F910C94B80EDF91CF911F912C
:101E5000089578941F920F920FB60F921124EF926B
:101E6000FF920F931F932F933F934F935F936F9323
:101E70007F938F939F93AF93BF93EF93FF93CF93F2
:101E8000DF931F92CDB7DEB70E94B80E00917800A5
:101E90001091790090917C009F71E090B901F090D1
:101EA000BA010DC0D7011296ED91FC911397B801BC
:101EB000892F99830995F701E080F1809981E114D8
:101EC000F10481F70F90DF91CF91FF91EF91BF91D6
:101ED000AF919F918F917F916F915F914F913F91C2
:101EE0002F911F910F91FF90EF900F900FBE0F90C9
:101EF0001F90189521E030E0082E01C0220F0A94AF
:101F0000EAF7322F909168002095292320936800EA
:101F10009BB3932B9BBB90916800932B909368008D
:101F2000811103C060936B000895813019F46093B0
:101F30006C000895823019F460936D000895833029
:101F400011F4609373000895A4E0B0E0EAEAFFE0C2
:101F50000C9405187C016A01FC018081823008F430
:101F60004AC1FB019081923008F442C1843079F477
:101F7000943009F040C1F7019181FB0181819817EC
:101F800009F439C1A7E0EA2EA1E0FA2E34C1943059
:101F900009F42EC1923091F4823009F02CC188E00E
:101FA000F701DA0101900D928A95E1F7FB01818139
:101FB000F70191818923FA0181831CC1823009F4E0
:101FC00017C1F70182819381FB01A281B381F701DF
:101FD0000481158126813781FB0184809580A6804C
:101FE000B780FC01EA1BFB0BAF01F7FF04C04427DD
:101FF00055274E1B5F0B403251050CF074C01E1666
:102000001F06B4F524013501042E04C076946794AC
:10201000579447940A94D2F749825A826B827C8201
:10202000412C512C3201439404C0440C551C661CB5
:10203000771C4A95D2F741E0441A510861087108AB
:10204000482059206A207B20812C912C54018394B4
:1020500045284628472819F4812C912C54014980A1
:102060005A806B807C8084289528A628B72846C093
:10207000EF2B09F443C0840F951F28013901042E6A
:1020800004C076946794579447940A94D2F749828F
:102090005A826B827C82412C512C3201439404C0C1
:1020A000440C551C661C771C4A95D2F741E0441A33
:1020B000510861087108402251226222732201E016
:1020C00010E020E030E045284628472819F400E0D9
:1020D00010E0980149805A806B807C800429152982
:1020E000262937290BC0A817B90724F4812C912C75
:1020F000540104C0CD0100E010E09801F7014181D6
:10210000FB015181451709F446C0442349F02401DD
:102110003501401A510A620A730A9301820104C010
:10212000081919092A093B0937FD05C0F601118272
:10213000938382830CC041E0F601418393838283C1
:1021400030952095109501951F4F2F4F3F4F0483D9
:102150001583268337830EC0880F991FAA1FBB1FC4
:10216000F60184839583A683B78382819381019747
:1021700093838283F60184819581A681B781AC0126
:10218000BD0141505109610971094F3F5F4F6F4FC8
:102190007F4310F30CC0F601418393838283080DC3
:1021A000191D2A1D3B1D048315832683378383E075
:1021B000F6018083448155816681778177FF1AC05B
:1021C000DB01CA0181709927AA27BB2776956795FD
:1021D00057954795842B952BA62BB72B84839583F6
:1021E000A683B7838281938101969383828302C001
:1021F0007B0101C07601C7012496E0E10C9421180F
:10220000A0E2B0E0E6E0F1E10C9413186D8F7E8F50
:102210008F8F98A3298F3A8F4B8F5C8FBE016F5E93
:102220007F4FCE014D960E94D114BE01675F7F4F54
:10223000CE0149960E94D114AE014F5F5F4FBE019F
:10224000675F7F4FCE0141960E94A40F0E94071442
:10225000A096E2E00C942F18A0E2B0E0E2E3F1E1F6
:102260000C9413186D8F7E8F8F8F98A3298F3A8FC0
:102270004B8F5C8FBE016F5E7F4FCE014D960E94EB
:10228000D114BE01675F7F4FCE0149960E94D114E1
:102290008A8591E089278A87AE014F5F5F4FBE0133
:1022A000675F7F4FCE0141960E94A40F0E940714E2
:1022B000A096E2E00C942F18A0E2B0E0E2E6F1E193
:1022C0000C9405186D8F7E8F8F8F98A3298F3A8F6E
:1022D0004B8F5C8FBE016F5E7F4FCE014D960E948B
:1022E000D114BE01675F7F4FCE0149960E94D11481
:1022F0009989923008F412C08985823008F41AC096
:10230000943021F4823009F4B4C008C0843021F440
:10231000923009F4AEC00EC0923051F481E02A89A7
:102320009A85291301C080E08A8BCE014196A3C013
:10233000823051F481E02A899A85291301C080E016
:102340008A87CE01099697C08D889E88AF88B88C01
:102350000D851E852F853889E0E2F0E080E090E071
:10236000DC01C12CD12C760140E050E0BA0180FEA6
:1023700018C0400F511F621F731F8C0D9D1DAE1D95
:10238000BF1D412C512C3201439440175107620765
:10239000730718F0412C512C3201840D951DA61D98
:1023A000B71DCC0CDD1CEE1CFF1C37FF02C068946F
:1023B000C0F8000F111F221F331FB694A7949794E3
:1023C00087943197A1F62B893C89EB85FC852E0FEC
:1023D0003F1F2E5F3F4F3C832B8321E0EA893A85E4
:1023E000E31301C020E02A83EB81FC810CC080FF55
:1023F00005C076956795579547957068B695A795EA
:10240000979587953196B7FDF2CF9F010CC0880F45
:10241000991FAA1FBB1F77FD8160440F551F661FC0
:10242000771F215031090097A105E0E4BE0778F33A
:102430002B833C838C019D010F77112722273327A3
:10244000003411052105310559F487FD09C0452BDC
:10245000462B472B29F0805C9F4FAF4FBF4F8078B2
:102460008D839E83AF83B88783E08983CE010196F5
:1024700002C087E091E00E940714A096E0E10C946E
:102480002118A8E1B0E0E7E4F2E10C940D186D8B9F
:102490007E8B8F8B988F298B3A8B4B8B5C8BBE01FD
:1024A000675F7F4FCE0145960E94D114BE016F5FDA
:1024B0007F4FCE0141960E94D1149985923008F445
:1024C00075C08981823008F474C02A853A81232737
:1024D0002A87943011F0923019F4981367C06CC0B9
:1024E000843039F41D861E861F86188A1C861B863A
:1024F00004C0823029F484E08987CE0109965EC049
:102500008B859C852B813C81821B930B9C878B87C1
:102510004D855E856F857889CD80DE80EF80F8847B
:102520004C155D056E057F0538F4440F551F661F79
:10253000771F01979C878B87EFE1F0E000E010E0C8
:1025400020E030E480E090E0DC014C155D056E0594
:102550007F0540F0802B912BA22BB32B4C195D09EA
:102560006E097F093695279517950795440F551FD6
:10257000661F771F319749F78C019D010F7711274F
:1025800022273327003411052105310559F487FD31
:1025900009C0452B462B472B29F0805C9F4FAF4F3E
:1025A000BF4F80788D879E87AF87B88BCE01099605
:1025B00005C0CE01019602C087E091E00E94071499
:1025C0006896E8E00C942918A8E1B0E0EAEEF2E1A0
:1025D0000C9413186D8B7E8B8F8B988F298B3A8B75
:1025E0004B8B5C8BBE01675F7F4FCE0145960E948F
:1025F000D114BE016F5F7F4FCE0141960E94D1146E
:102600008985823058F08981823040F0BE016F5F49
:102610007F4FCE0109960E94401501C08FEF68964A
:10262000E2E00C942F18A8E1B0E0E9E1F3E10C94AA
:1026300013186D8B7E8B8F8B988F298B3A8B4B8BDE
:102640005C8BBE01675F7F4FCE0145960E94D1141F
:10265000BE016F5F7F4FCE0141960E94D1148985E4
:10266000823058F08981823040F0BE016F5F7F4F29
:10267000CE0109960E94401501C081E06896E2E013
:102680000C942F18ACE0B0E0E8E4F3E10C941118DE
:1026900069877A878B879C87BE016F5F7F4FCE01EA
:1026A00009960E94D1148981823091F1823080F1A3
:1026B000843041F48A81882331F100E010E020E089
:1026C00030E829C02B813C8137FD22C02F313105F4
:1026D0008CF78EE190E0821B930B0D811E812F8180
:1026E000388504C036952795179507958A95D2F7B2
:1026F0008A81882381F030952095109501951F4F90
:102700002F4F3F4F08C00FEF1FEF2FEF3FE703C0E2
:1027100000E010E09801B801C9012C96E4E00C94A7
:102720002D18A8E0B0E0E7E9F3E10C940D188B0157
:102730009C011A82611571058105910519F482E0E9
:1027400089835DC083E089834EE150E05C834B83E5
:10275000C901B8010E944018019797FF39C0EE27C0
:10276000FF27E81BF90B41E050E060E070E00E2E1F
:1027700004C0440F551F661F771F0A94D2F74150BB
:102780005109610971094023512362237323C12C2C
:10279000D12C7601C394452B462B472B19F4C12C21
:1027A000D12C760104C03695279517950795EA95A3
:1027B000D2F70C291D292E293F290D831E832F8333
:1027C00038872EE130E0281B390B3C832B8317C060
:1027D000009729F40D831E832F83388710C0082E9D
:1027E00004C0000F111F221F331F0A94D2F70D835C
:1027F0001E832F833887481B590B5C834B83CE0184
:1028000001960E9407142896E8E00C9429180F936B
:102810001F93CF93DF93DC0114964D915D916D91E1
:102820007C9117971196EC9111978C91823020F43E
:1028300060618FEF90E0A6C0843009F49EC08230C2
:1028400009F495C0411551056105710509F492C05F
:1028500012962D913C91139722388FEF38070CF088
:1028600058C0C2E8DFEFC21BD30BCA31D1056CF5EB
:102870008A019B010C2E04C0369527951795079564
:102880000A94D2F781E090E0A0E0B0E00C2E04C002
:10289000880F991FAA1FBB1F0A94D2F70197A1099D
:1028A000B10984239523A623B72341E050E060E0DB
:1028B00070E0892B8A2B8B2B19F440E050E0BA0191
:1028C000402B512B622B732B03C040E050E0BA0128
:1028D000DB01CA018F779927AA27BB27803491058E
:1028E000A105B10539F447FF09C0405C5F4F6F4F48
:1028F0007F4F04C0415C5F4F6F4F7F4F81E090E09E
:1029000041155105610520E4720748F580E090E02B
:1029100026C0203831058CF5DB01CA018F77992755
:10292000AA27BB2780349105A105B10539F447FFDB
:1029300009C0405C5F4F6F4F7F4F04C0415C5F4FE9
:102940006F4F7F4F77FD04C0C90181589F4F07C06B
:102950007695679557954795C90180589F4F97E0A1
:1029600076956795579547959A95D1F70BC080E076
:1029700090E005C080E090E005C08FEF90E040E07F
:1029800050E0BA01982F9695E0FB97F9362F80FB1F
:1029900037F9642F752F832FDF91CF911F910F91FE
:1029A0000895CF92DF92EF92DC01FB01CC9011965B
:1029B000DC90119712968C9112973FE7E32EE82254
:1029C0006E2DA60170E0982F991F9927991F1396D5
:1029D0002C91822F880F892B90E027FB222720F94A
:1029E0002183009729F5411551056105710511F401
:1029F00082E027C082E89FEF9383828327E0440F21
:102A0000551F661F771F2A95D1F783E0808309C081
:102A1000440F551F661F771F82819381019793830F
:102A2000828341155105610580E4780788F320C051
:102A30008F3F910579F4411551056105710519F430
:102A400084E0808319C0E4FE03C081E0808310C06D
:102A500010820EC08F5791099383828383E0808315
:102A600087E0440F551F661F771F8A95D1F7706462
:102A70004483558366837783EF90DF90CF900895EA
:102A8000CF93FC01DB019081923008F452C08C910D
:102A9000823008F44EC0943071F4843039F41196C9
:102AA0002C9130E08181281B310948C08181882325
:102AB00009F43FC03BC0843029F411968C918111F8
:102AC00038C034C0923019F48230B9F735C0823042
:102AD00069F3C18111968C911197C8131DC0228191
:102AE000338112968D919C911397821793070CF462
:102AF00013C0281739070CF417C04481558166812B
:102B0000778114968D919D910D90BC91A02D841785
:102B10009507A607B70718F4C11108C00AC04817DF
:102B200059076A077B0740F4C11103C02FEF3FEF3D
:102B300005C021E030E002C020E030E0C901CF91C3
:102B40000895149888B91398139A149A089588B917
:102B50001398139A08951F93CF93DF9385B78068D6
:102B600085BF85B7806885BF8FE781B98DEF82B952
:102B700017B88FEF88B912981098139A159A149A6B
:102B8000169A28E22A95F1F7129A3FEF94E624E08C
:102B9000315090402040E1F700C0000087B988E242
:102BA0000E94A11581E10E94A1153FEF84E694E007
:102BB000315080409040E1F700C0000084E30E9463
:102BC000A11588E30E94A11583E10E94A11580E26E
:102BD0000E94A1158AE30E94A11585E50E94A71510
:102BE00086E30E94A11588E40E94A7158CE20E944A
:102BF000A115C0E4D1E00DC080E00E94A71580E0DF
:102C00000E94A71580E00E94A7151150A9F72197EF
:102C100011F010EFF1CF81EB0E94A11580E00E942E
:102C2000A71588E10E94A71583EB0E94A11580E0FB
:102C30000E94A71588E10E94A71589E2DF91CF9134
:102C40001F910C94A115CF93C82F892F0E94A7150F
:102C50008C2FCF910C94A715CF92DF92EF92FF9219
:102C60000F931F93CF93DF938C01D62EC72EFC01B9
:102C7000C781D085E184F2848AE20E94A11580E0B8
:102C800090E00E942316CE0101970E9423168BE24A
:102C90000E94A11580E090E00E942316C7010197D1
:102CA0000E9423168CE20E94A11511C0F801E18454
:102CB000F28409C0F1E0EF1AF1088C2D0E94A715EB
:102CC0008D2D0E94A715E114F104A1F721972097FB
:102CD00069F7DF91CF911F910F91FF90EF90DF90F7
:102CE000CF9008950E94E90160916C0170916D018F
:102CF0008FE591E00E942C16109263011092620100
:102D0000109265011092640181E080935F018FE071
:102D100091E00E94F419CDE1D1E00E94CC07882314
:102D2000E1F38AE391E00E94EA069F938F937F93F9
:102D30006F93DF93CF930E94DD190F900F900F9048
:102D40000F900F900F90E9CF8FE591E00E944E0217
:102D50006FE571E08AE391E00C942F06CF93C82FC2
:102D600086E30E94A115EC2FF0E0EB5DFE4F808121
:102D7000CF910C94A7158CE20C94A115CF92DF9201
:102D8000EF92FF920F931F93CF93DF93EC011C827E
:102D90001B82488188E0489FA00111248D819E817B
:102DA000840F951F9E838D8329853A85840F951FF7
:102DB0002817390720F5DD84CE840F811885A801F6
:102DC00060E070E080E090E00E9422020E94BB166A
:102DD00011C0E984FA8409C081E0E81AF1088C2D59
:102DE0000E94A7158D2D0E94A715E114F104A1F7EB
:102DF000015011090115110561F71E821D82DF9135
:102E0000CF911F910F91FF90EF90DF90CF90089599
:102E1000FC014081F6E04F9FA0011124FC012381B9
:102E20003481240F351F34832383240F351F67819A
:102E300070856217730710F40C94BE160895CF9333
:102E4000DF93EC01693029F06A3039F50E94BE1633
:102E50002BC02B813C81688186E0689FB0011124E2
:102E6000C9010E949217009721F0281B390B3C835F
:102E70002B83CE010E940817688186E0689FB0010D
:102E800011248B819C810E949217CB016A8170E092
:102E90000E949217892B69F707C060322CF00E94BC
:102EA0007604CE010E940817CE01DF91CF910895DC
:102EB000682F80916E0190916F010E941F1780E032
:102EC00090E00895A29FB001B39FC001A39F01D0DD
:102ED000B29F700D811D1124911D0895B7FF0C94B0
:102EE000D6170E94D617821B930B0895DB018F9390
:102EF0009F930E94D617BF91AF91A29F800D911D05
:102F0000A39F900DB29F900D11240895991B79E015
:102F100004C0991F961708F0961B881F7A95C9F769
:102F200080950895AA1BBB1B51E107C0AA1FBB1FB8
:102F3000A617B70710F0A61BB70B881F991F5A9545
:102F4000A9F780959095BC01CD01089597FB072EB8
:102F500016F4009407D077FD09D00E94921707FC61
:102F600005D03EF4909581959F4F08957095619599
:102F70007F4F0895052E97FB16F4009407D057FD58
:102F80000DD00E94E11707FC09D07EF49095809542
:102F9000709561957F4F8F4F9F4F08955095409545
:102FA000309521953F4F4F4F5F4F08950E94621714
:102FB000A59F900DB49F900DA49F800D911D11248D
:102FC0000895A1E21A2EAA1BBB1BFD010DC0AA1F6A
:102FD000BB1FEE1FFF1FA217B307E407F50720F082
:102FE000A21BB30BE40BF50B661F771F881F991FFD
:102FF0001A9469F760957095809590959B01AC0146
:10300000BD01CF0108952F923F924F925F926F9230
:103010007F928F929F92AF92BF92CF92DF92EF9268
:10302000FF920F931F93CF93DF93CDB7DEB7CA1BE9
:10303000DB0B0FB6F894DEBF0FBECDBF09942A8814
:10304000398848885F846E847D848C849B84AA84BC
:10305000B984C884DF80EE80FD800C811B81AA8149
:10306000B981CE0FD11D0FB6F894DEBF0FBECDBF14
:10307000ED010895EE0FFF1F0590F491E02D0994E6
:103080000E94491884FF0895CB010E944918805F6F
:103090000895AA27992329F4A85F982B11F480E1B9
:1030A0000895903118F4AD5F9295A395990FE8F7C4
:1030B0008A2F992708950F931F93CF93DF93823020
:1030C000910510F482E090E0E091BF01F091C00121
:1030D00020E030E0C0E0D0E023C0408151814817BB
:1030E0005907A8F04817590761F482819381209706
:1030F00019F09B838A832EC09093C0018093BF01F7
:1031000029C02115310529F04217530710F0A901F4
:1031100002C0BE01DF0102811381EF019A01F801B3
:103120003097D9F62115310509F1281B390B2430C8
:10313000310590F412968D919C911397611571054C
:1031400021F0FB019383828304C09093C00180939C
:10315000BF01FD01329644C0FD01E20FF31F8193D0
:103160009193225031092D933C933AC02091BD0197
:103170003091BE01232B41F42091030130910401D1
:103180003093BE012093BD012091010130910201D5
:103190002115310541F42DB73EB7409105015091FD
:1031A0000601241B350BE091BD01F091BE01E21731
:1031B000F307A0F42E1B3F0B2817390778F0AC015A
:1031C0004E5F5F4F2417350748F04E0F5F1F509337
:1031D000BE014093BD018193919302C0E0E0F0E015
:1031E000CF01DF91CF911F910F910895EF92FF9240
:1031F0000F931F93CF93DF93009709F48EC0DC01E8
:10320000129713961C921E921297E090BF01F090B5
:10321000C001E114F10489F42D913C911197280F1C
:10322000391F8091BD019091BE018217930789F5E6
:10323000B093BE01A093BD0170C0E70120E030E073
:1032400001C0EA01CA17DB0738F44A815B819E019D
:1032500041155105B1F722C0AC0142505109FA01A4
:10326000D383C28300811181BC01600F711F6C1771
:103270007D0761F468817981600F711F6E5F7F4FF8
:10328000718360836A817B81738362832115310539
:1032900029F4B093C001A093BF013FC0F901B383EB
:1032A000A283E90149915991C40FD51FAC17BD07FD
:1032B00071F4DC019E918E91840F951F029691838B
:1032C000808312968D919C91139793838283A0E0C3
:1032D000B0E002C0D7017C01F701828193810097A1
:1032E000C9F7C701029620813181820F931F209177
:1032F000BD013091BE012817390779F4109729F4E0
:103300001092C0011092BF0104C013961C921E922D
:103310001297F092BE01E092BD01CDB7DEB7E6E0B4
:103320000C942B180F931F93CF93DF93EC018B0119
:10333000009731F46115710519F4E0E0F0E037C051
:103340006EE070E081E090E00E943A1CFC01009782
:10335000A1F380E883830115110571F013870287BB
:1033600081E883838091C1019091C201892B21F46E
:10337000F093C201E093C1012097C9F0D187C087C3
:103380008381826083838091C3019091C401892BE2
:1033900071F4F093C401E093C3018091C501909151
:1033A000C601892B21F4F093C601E093C501CF013A
:1033B000DF91CF911F910F910895A2E0B0E0E3EE6D
:1033C000F9E10C941318FE01379661917191FA831B
:1033D000E983AF018091C3019091C4010E94231A37
:1033E0002296E2E00C942F180F931F93CF93DF9354
:1033F0008C01E091C301F091C401838181FF1BC066
:10340000C0E0D0E005C00995892B11F0CFEFDFEFC8
:10341000F80181918F016091C3017091C401DB01BA
:103420001896ED91FC9119978111EDCF8AE00995DD
:10343000892B09F402C0CFEFDFEFCE01DF91CF91EE
:103440001F910F910895ACE0B0E0E9E2FAE10C942D
:1034500003187C016B018A01FC01178216828381AB
:1034600081FFC7C188248394912C8C0E9D1EF70187
:103470009381F60193FD859193FF81916F018823DC
:1034800009F4B3C1853239F493FD859193FF81919D
:103490006F01853229F4B70190E00E94751CE7CFD7
:1034A000712C312C20E02032A8F48B3261F028F40A
:1034B000803251F0833271F40BC08D3239F0803399
:1034C00049F4216028C02260246025C0286023C000
:1034D000206121C027FD27C0382F30533A3078F4BF
:1034E00026FF06C0FAE07F9E300D1124732E13C014
:1034F0008AE0389E300D1124332E20620CC08E32AB
:1035000021F426FD72C1206406C08C3611F42068B7
:1035100002C0883641F4F60193FD859193FF8191B5
:103520006F018111C0CF982F9554933018F09052AD
:10353000933028F40C5F1F4FFFE3F9830DC08336EF
:1035400031F0833771F0833509F05EC023C0F80194
:10355000808189830E5F1F4F66246394712C540110
:1035600015C02801F2E04F0E511CF801A080B18077
:1035700026FF03C0672D70E002C06FEF7FEFC5012B
:103580002C870E946A1C3C0182012C856FE7262E45
:10359000222218C02801F2E04F0E511CF801A08031
:1035A000B18026FF03C0672D70E002C06FEF7FEF90
:1035B000C5012C870E94581C3C012C8550E8252E03
:1035C000222A820123FC1CC006C0B70180E290E0E1
:1035D0000E94751C3A94832D90E068167906A8F332
:1035E0000FC0F50127FC859127FE81915F01B7018E
:1035F00090E00E94751C31103A94F1E06F1A710846
:103600006114710471F7EEC0843611F0893641F50A
:10361000F80127FF07C060817181828193810C5F6F
:103620001F4F08C060817181882777FD8095982F92
:103630000E5F1F4F4FE6642E622297FF09C09095E0
:103640008095709561957F4F8F4F9F4FF0E86F2A5F
:103650002AE030E0A4010E94A11CA82EA81844C0B2
:10366000853731F43FEEB32EB2222AE030E024C099
:1036700099EFB92EB2228F36B9F020F4883509F0CF
:10368000B4C00DC0803721F0883709F0AEC002C049
:1036900020E1B22AB4FE0BC084E0B82A08C024FF9F
:1036A00009C0E6E0BE2A06C028E030E005C020E1FF
:1036B00030E002C020E132E0F801B7FE07C06081CF
:1036C0007181828193810C5F1F4F06C0608171817F
:1036D00080E090E00E5F1F4FA4010E94A11CA82E65
:1036E000A8188FE7682E6B2066FE0BC0362D3E7F34
:1036F000A71450F464FE0AC062FC08C0362D3E7E5A
:1037000005C0BA2C362D03C0BA2C01C0B72C34FF2B
:103710000DC0FE01EA0DF11D8081803311F4397E68
:1037200009C032FF06C0B394B39404C0832F8678D7
:1037300009F0B39433FD14C030FF0FC07A2CB314DA
:1037400060F4730C7B18B32C08C0B70180E290E0E2
:103750003C870E94751CB3943C85B314B0F304C03D
:10376000B31410F43B1801C0312C34FF12C0B70160
:1037700080E390E03C870E94751C3C8532FF1EC0B0
:1037800031FF03C088E590E002C088E790E0B70110
:103790000CC0832F867891F031FD02C080E201C019
:1037A0008BE237FD8DE2B70190E00E94751C06C0E8
:1037B000B70180E390E00E94751C7A94A714C0F3CF
:1037C000AA94F401EA0DF11DB701808190E00E94F6
:1037D000751CA110F5CF06C0B70180E290E00E94F1
:1037E000751C3A943110F8CF42CEF701268137810B
:1037F00002C02FEF3FEFC9012C96E2E10C941F1895
:10380000DC01CB01FC01F999FECF06C0F2BDE1BDA0
:10381000F89A319600B40D9241505040B8F708958F
:10382000F999FECF92BD81BDF89A992780B5089588
:10383000DC01A40FB51F4150504048F0CB01840F6C
:10384000951F2E910E94291C41505040D0F7089599
:10385000262FF999FECF92BD81BDF89A019700B449
:10386000021639F01FBA20BD0FB6F894FA9AF99AE9
:103870000FBE08950F931F93CF93DF93689F80012E
:10388000699F100D789F100D1124C8010E945B18CC
:10389000C82FD92F209731F0A80160E070E08C2F5D
:1038A0000E94631CCE01DF91CF911F910F9108956B
:1038B000FC010590615070400110D8F780959095FB
:1038C0008E0F9F1F0895DC0101C06D934150504041
:1038D000E0F70895FC016150704001900110D8F7A5
:1038E000809590958E0F9F1F08950F931F93CF93F0
:1038F000DF938C01EB018B8181FD03C00FEF1FEF84
:103900001AC082FF0DC02E813F818C819D812817B6
:10391000390764F4E881F9810193F983E88306C0EB
:10392000E885F985802F0995892B41F78E819F8144
:1039300001969F838E83C801DF91CF911F910F91D4
:103940000895FA01AA27283051F1203181F1E89435
:103950006F936E7F6E5F7F4F8F4F9F4FAF4FB1E082
:103960003ED0B4E03CD0670F781F891F9A1FA11D7D
:10397000680F791F8A1F911DA11D6A0F711D811D7E
:10398000911DA11D20D009F468943F912AE0269F43
:1039900011243019305D3193DEF6CF010895462FA2
:1039A0004770405D4193B3E00FD0C9F7F6CF462F83
:1039B0004F70405D4A3318F0495D31FD40524193EC
:1039C00002D0A9F7EACFB4E0A695979587957795A9
:1039D0006795BA95C9F700976105710508959B0130
:1039E000AC010A2E06945795479537952795BA95B9
:1039F000C9F7620F731F841F951FA01D0895F894C7
:023A0000FFCFF6
:103A0200AA0000C701200000000000000000002AF8
:103A12002A2A20546F756368202A2A2A0025642FD7
:103A220025642C20002848E88868D8A81843616CCF
:0A3A32006962726174696F6E000032
:00000001FF
